:020000040800F2
:10000000C8CD0020F14D0008F9050008FB050008E7
:10001000FF050008030600080706000800000000AE
:100020000000000000000000000000000B060008B7
:100030000D060008000000000F0600081106000869
:100040000B4E00080B4E00080B4E00080B4E00082C
:100050000B4E00080B4E00080B4E00080B4E00081C
:100060000B4E00080B4E00080B4E00080B4E00080C
:100070000B4E00080B4E00080B4E00080B4E0008FC
:100080000B4E00080B4E00080B4E00080B4E0008EC
:100090000B4E00080B4E00080B4E00080B4E0008DC
:1000A0000B4E00080B4E00080B4E00080B4E0008CC
:1000B00013060008C74900085DAF00080B4E000892
:1000C0000B4E00080B4E00080B4E00080B4E0008AC
:1000D0000B4E0008674D0008610E00080B4E00082B
:1000E0000B4E00080B4E00080B4E00080B4E00088C
:1000F0000B4E00080B4E00080B4E00080B4E00087C
:100100000B4E0008C13500080B4E00080B4E0008CE
:100110000B4E00080B4E00080B4E00089D0D00080A
:100120000B4E00080B4E00080B4E00080B4E00084B
:1001300000F002F800F0B0F80AA090E8000C824449
:100140008344AAF10107DA4501D100F0A5F8AFF226
:10015000090EBAE80F0013F0010F18BFFB1A43F0A5
:10016000010318478C0A0100AC0A01000A444FF051
:10017000000C10F8013B13F0070408BF10F8014B06
:100180001D1108BF10F8015B641E05D010F8016B4B
:10019000641E01F8016BF9D113F0080F1EBF10F8AF
:1001A000014BAD1C0C1B09D16D1E58BF01F801CBD2
:1001B000FAD505E014F8016B01F8016B6D1EF9D555
:1001C0009142D6D37047000000230024002500266A
:1001D000103A28BF78C1FBD8520728BF30C148BFAA
:1001E0000B6070476E290BF0EE8770290BF051857C
:1001F00066290EF0968465290EF0938467290EF027
:1002000090846129AFF3008003681B0A28BF41F086
:10021000800169290BF0C28464290BF0BF84752921
:100220000BF0BC846F290CF0E78078290BF01D855A
:10023000E9290CF08180E4290CF07E80F5290CF08E
:100240007B80EF290CF0E480F8290BF01C85036813
:10025000DB0928BF41F0800163290BF0F087732987
:100260000BF0F587E3290CF06F83F3290CF074830E
:10027000002070471FB50CF0C9FB040000200021CE
:100280000DF0A2FA401C6060002000210DF086FAFB
:10029000E0601FBD10B510BD0CF08AFB1146FFF7E2
:1002A000E9FF00F009F80CF063FC03B4FFF7F2FF7C
:1002B00003BC04F0FDFC00000EB500200290824655
:1002C00000260027804681464FF4A06004F0B0FD70
:1002D00004F07EFC4FF4E13004F0F9FC4FF461408F
:1002E00000F0EDFD00F0CBFE00F09EFD00F094FA72
:1002F00003F03EFA40F2CF21632004F037FB03F015
:10030000F9FC04F0E3F804F075FB04F083FB04F05F
:100310009EFB03F01DFC102380A22821402003F047
:10032000E8FB10237FA22821002003F0E2FB01203C
:100330001023252228210090782003F006FB1023AB
:100340007AA21946002003F0D4FB012010232E22AC
:1003500019460090602003F0F8FA102375A21946A0
:10036000702003F0C6FB03F04DFA002006F011FEEA
:100370000AF080F870490122486870A108F009FA73
:100380006FA00BF099FB76A00BF096FB0DE04FF4FD
:10039000C87004F05AFC78A00BF08EFB4FF4487044
:1003A00004F053FC79A00BF087FB7D4801F0FCFAC8
:1003B0000028ECD17BA00BF07FFB1E21002006F073
:1003C000AAFE019076484FF461427AA10368019831
:1003D0000BF07EFB7C4801F0B1FA044614B12046D4
:1003E00000F042FE794801F05FF904467CB9322200
:1003F0000021019806F0C3FD744883780088724993
:100400000988421A72A101980BF062FB02E02046B3
:1004100000F02AFE0020019906F06DFE01207349CC
:10042000086079E0002000F01BFA02909DF80800B7
:1004300018B39DF80800012816D002280CD0042813
:100440001AD16A480C30006808B9012000E0002089
:1004500066490C3108600FE00EB9012000E0002071
:1004600006464FF0000807E00FB9012000E0002029
:1004700007464FF0000900BF02E00A2004F0E5FB48
:10048000012F03D109F1010904F031F9B9F1010F8C
:100490000AD10020554910390860642004F0D5FBCA
:1004A00001205349C1F88401012E22D108F101082D
:1004B00004F003FB824650460EF024F905460A205C
:1004C00095FBF0FB102006235A4601460090302091
:1004D00003F0C5FA0A2095FBF0F100FB115B102038
:1004E00001235A4601460090682003F0B8FA03F051
:1004F00089F9B8F1010F0AD100203C49143908608C
:10050000642004F0A2FB01203949C1F88001394878
:10051000006808B101F083FA84E7000053706F327D
:100520003A000000526174653A000000486569684D
:10053000743A0000636D000024010020313A00008D
:100540000D0A4153363038D6B8CEC6CAB6B1F0C45B
:10055000A3BFE9B2E2CAD4B3CCD0F20D0A000000C6
:100560000D0AD3EB4153363038C4A3BFE9CED5CA08
:10057000D62E2E2E2E0D0A000D0ACEB4BCECB2E201
:10058000B5BDC4A3BFE92121210D0A000D0AB3A204
:10059000CAD4C1ACBDD3C4A3BFE92E2E2E0D0A0010
:1005A000240000200D0ACDA8D1B6B3C9B9A62121D7
:1005B000210D0A00B2A8CCD8C2CA3A256420202056
:1005C000B5D8D6B73A257800000000208402002074
:1005D000BFE2C8DDC1BF3A25642020202020B6D468
:1005E000B1C8B5C8BCB63A20256400009481214248
:1005F0000080214218012142704700BFFEE700BF82
:10060000FEE700BFFEE700BFFEE770477047704798
:10061000704710B50121880706F07BFA40B101212F
:10062000880706F087FA03480068401C0149086003
:1006300010BD0000D80000200CB5002001900090F3
:100640006C48006840F480306A49086000BF69481F
:10065000006800F4003000900198401C0190009860
:1006600018B90198B0F5A06FF1D16248006800F4A4
:10067000003010B10120009001E0002000900098AF
:10068000012843D15C48006840F010005A490860D6
:100690000846006820F0030008600846006840F043
:1006A0000200086053484068524948600846406864
:1006B00048600846406840F48060486008464068EA
:1006C00020F47C1048600846406840F4E810486018
:1006D0000846006840F08070086000BF4548006828
:1006E00000F000700028F9D04248406820F0030074
:1006F000404948600846406840F00200486000BF3A
:100700003C48406800F00C000828F9D10CBD10B539
:10071000FFF792FF10BD10B53648006840F00100A9
:100720003449086008464068344908403149486007
:1007300008460068324908402E49086008460068AB
:1007400020F4802008600846406820F4FE004860DD
:100750004FF41F008860FFF7DAFF4FF0006029496F
:10076000086010BD10B5002100200022214B5B68FD
:1007700003F00C0121B1042906D0082928D107E093
:10078000214B224C236027E01F4B204C236023E0A9
:10079000184B5B6803F47010164B5B6803F48032EF
:1007A000022303EB904022B9194B4343174C2360BB
:1007B0000DE0104B5B6803F4003323B1144B43434B
:1007C000124C236003E0104B4343104C236003E0C2
:1007D0000D4B0E4C236000BF00BF064B5B68C3F39C
:1007E00003130C4CE15C094B1B68CB40074C2360A6
:1007F00010BD000000100240002002400000FFF881
:10080000FFFFF6FE08ED00E000127A00080000206D
:1008100000093D000C00002008B501214C2004F027
:1008200091FE1C20ADF8000048208DF803006946B9
:100830003A4804F0CBFB0120ADF8000048208DF8C9
:1008400003006946364804F0C1FB0120ADF8000002
:1008500028208DF803006946324804F0B7FB08BD34
:1008600010B5044614B101202F4908702E480078B5
:10087000002837D01021294804F03BFC78B108212A
:10088000264804F036FC50B10421244804F031FC21
:1008900028B10121234804F02CFC012822D10A2090
:1008A00004F0D3F900202049087010211B4804F0FF
:1008B00020FC08B9012010BD0821184804F019FCDB
:1008C00008B90220F7E70421144804F012FC08B923
:1008D0000320F0E70121134804F00BFC01281BD191
:1008E0000420E8E710210D4804F003FC012813D18F
:1008F00008210A4804F0FDFB01280DD10421074816
:1009000004F0F7FB012807D10121064804F0F1FBB0
:1009100010B90120044908700020CCE700180140FC
:10092000000C0140000801401C00002070B5054685
:10093000002405E0601CC4B2C82C01DD002070BD9D
:1009400002213A4804F0B1FF0028F3D02946374885
:1009500004F058FF002405E0601CC4B2C82C01DD7F
:100960000020ECE70121314804F09FFF0028F3D07C
:100970002E4804F049FFC0B2E1E700B587B001217D
:10098000082004F0DFFD0121880304F0E8FD4FF4A6
:100990006040ADF8180018208DF81B0003208DF87A
:1009A0001A0006A9224804F011FB4FF460412048C8
:1009B00004F0B9FB0020ADF804004FF48270ADF8EC
:1009C00006000020ADF808000220ADF80A00012062
:1009D000ADF80C004002ADF80E003820ADF8100064
:1009E0000020ADF812000720ADF8140001A90F484F
:1009F00004F032FE01210D4804F0D3FEFF20FFF782
:100A000095FF07B000BD10B50446084800884FF6B2
:100A1000C7710840054908800846008820430880BF
:100A20000121024804F0BDFE10BD00000038004066
:100A3000000C014010B500240020D149086090202E
:100A4000FFF774FF0020FFF771FF0020FFF76EFF34
:100A50000020FFF76BFFFF20FFF768FF44EA002448
:100A6000FF20FFF763FF04430120C649C1F8B0012E
:100A7000204610BD08B50121082004F063FD4FF4A5
:100A80008050ADF8000010208DF8030003208DF891
:100A900002006946BC4804F099FA4FF48051BA4804
:100AA00004F041FB0120B6490860FFF766FF002013
:100AB000FFF7A9FFFFF7BEFFB449088008BD10B5D6
:100AC00000240020AE4908600520FFF72FFFFF201B
:100AD000FFF72CFF04460120AA49C1F8B0012046C7
:100AE00010BD10B504460020A54908600120FFF79D
:100AF0001DFF2046FFF71AFF0120A249C1F8B001EF
:100B000010BD10B500209E4908600620FFF70EFFBB
:100B100001209C49C1F8B00110BD10B500209849D2
:100B200008600420FFF702FF01209649C1F8B001D8
:100B300010BD2DE9F04106460C46174600209049AD
:100B400008600320FFF7F2FEC4F30740FFF7EEFE54
:100B5000C4F30720FFF7EAFEE0B2FFF7E7FE002547
:100B600005E0FF20FFF7E2FE7055681C85B2BD422C
:100B7000F7DB012082490860BDE8F08110B500BFB5
:100B8000FFF79DFF00F001000028F9D110BD2DE90D
:100B9000F04106460C461746FFF7B3FF00207849A0
:100BA00008600220FFF7C2FEC4F30740FFF7BEFE55
:100BB000C4F30720FFF7BAFEE0B2FFF7B7FE002547
:100BC00004E0705DFFF7B2FE681C85B2BD42F8DB41
:100BD00001206B490860FFF7D1FFBDE8F0812DE9E6
:100BE000F04107460E461446F0B2C0F58075AC429F
:100BF00000DC254612E02A4631463846FFF7C7FF9B
:100C0000AC4200D10BE02F442E44601B84B2B4F5FB
:100C1000807F02DD4FF4807500E02546EBE700BFE2
:100C2000BDE8F08110B50446214659A00AF044FF02
:100C30002403FFF766FFFFF7A1FF0020504908607B
:100C40002020FFF773FEC4F30740FFF76FFEC4F3E5
:100C50000720FFF76BFEE0B2FFF768FE012049496D
:100C6000C1F8B001FFF78AFF10BD2DE9F05F8146A2
:100C70000F461646DFF820B14FEA1738C7F30B0AC4
:100C8000CAF58054A64200DC344644E04FEA0831FD
:100C90004FF480525846FFF74CFF002508E00AEB5E
:100CA00005001BF80000FF2800D003E0681C85B297
:100CB000A542F4DB00BFA54216DA4046FFF7B2FFBB
:100CC000002507E019F8050005EB0A010BF8010003
:100CD000681C85B2A542F5DB4FEA08314FF480521B
:100CE0005846FFF77CFF04E0224639464846FFF7A6
:100CF00076FFA64200D10FE008F101084FF0000A8C
:100D0000A1442744301B86B2B6F5805F02DD4FF464
:100D1000805400E03446B9E700BFBDE8F09F10B54D
:100D2000FFF7EFFEFFF72AFF002015490860C720F4
:100D3000FFF7FCFD01201349C1F8B001FFF71EFFCA
:100D400010BD10B500200E490860B920FFF7EEFD78
:100D500001200C49C1F8B001032003F052FF10BD7F
:100D600010B5002006490860AB20FFF7DFFD012029
:100D70000449C1F8B001032003F043FF10BD000097
:100D8000B081214200802142000C01401E00002061
:100D900066653A25780D0A009002002010B5012101
:100DA0001F4805F0B6FE68B11E48008840F40040B8
:100DB0001C49088001211A4805F0BCFE0021184892
:100DC00005F0DEFB10BD7FB505460C460121202055
:100DD00004F0C5FBADF80450ADF800400020ADF8BC
:100DE0000600ADF8020069460D4805F06DF80122D5
:100DF00011460B4805F0DFFB0121094805F0C0FB57
:100E000037208DF80C0000208DF80D0002208DF8A1
:100E10000E0001208DF80F0003A804F00EF87FBD2E
:100E2000001400402000002008B50121082004F033
:100E300089FB4FF48070ADF8000010208DF803009E
:100E400003208DF802006946044804F0BFF84FF40F
:100E50008071024804F069F908BD0000000C0140EF
:100E600010B540F22551564804F016FFF8B1544829
:100E700004F092FEC4B25348008800F40040B0B9B8
:100E800050480088B0F5C87F12DA00214E4805F0BE
:100E90000BFE4C48008818B901214B4805F070FB47
:100EA00048490888411C474A118048490C5405E0CC
:100EB0004448008840F400404249088010BD10B505
:100EC00086B004460121042004F03CFB01214804C3
:100ED00004F045FB3A4804F01FFD0420ADF8100073
:100EE00003208DF8120018208DF8130004A938484B
:100EF00004F06CF80820ADF8100004208DF8130001
:100F000004A9344804F062F800940020ADF804000D
:100F1000ADF80600ADF80800ADF80C000C20ADF8F7
:100F20000A006946264804F03AFD0121244804F0ED
:100F3000C2FD012240F22551214804F0C8FD2620BF
:100F40008DF8140002208DF8150003208DF816008E
:100F500001208DF8170005A803F06FFF41F61F412F
:100F60006320FFF730FF0020164908800021164853
:100F700005F006FB06B010BD0FB438B505A800900B
:100F80001548009A04990AF085FD00200090124847
:100F90000AF084FF85B200240DE000BF402108481C
:100FA00004F064FE0028F9D00B48015D044804F009
:100FB000EFFD601C84B2AC42EFDB38BC5DF814FB83
:100FC0000044004020000020001400409012002047
:100FD00000080140000C0140201400200146212996
:100FE0003ED2DFE801F011131517191B1D1F212335
:100FF00025273D3D3D3D292B3D3D3D2D3D3D2F319F
:101000003335373D3D393B00A0A02BE0A0A029E0BF
:10101000A3A027E0A7A025E0ABA023E0B2A021E099
:10102000B9A01FE0BFA01DE0CCA01BE0CEA019E03E
:10103000D1A017E0D4A000BFDCA013E0DFA011E036
:10104000E2A00FE0EAA00DE0EDA00BE0EFA009E0C8
:10105000F2A007E0F6A005E0FAA003E0FCA001E0A2
:10106000FEA000BF00BF704770B504462046FFF7E2
:10107000B5FF05462946FEA00AF01EFD70BD08B565
:101080000121042004F05EFA4020ADF80000282081
:101090008DF8030003208DF802006946F64803F03E
:1010A00095FF08BD00BFF549098801F040010029FE
:1010B000F9D0F249091D0880704710B5EF20FFF7FD
:1010C000F1FF0120FFF7EEFF10BD10B5EC490968F4
:1010D000080EFFF7E7FFEA480068C0F30740FFF794
:1010E000E1FFE7480088C0F30720FFF7DBFFE44992
:1010F0000878FFF7D7FF10BD10B504462046FFF76C
:10110000D1FF10BD10B50446C4F30720FFF7CAFF96
:10111000E0B2FFF7C7FF10BD10B504462046FFF749
:10112000C1FF10BD10B504462012FFF7BBFFE0B2AF
:10113000FFF7B8FF10BD7CB50546EF208DF8000025
:1011400001208DF80100CE480068000E8DF80200E5
:10115000CB480068000C8DF80300C9480088000ADD
:101160008DF80400C64800788DF8050007208DF83A
:10117000060000208DF80700C249088012E0012017
:1011800003F063FDBF48008800F4004050B1002028
:10119000BC4908806946BC480AF04AFE04460CB1C6
:1011A00020467CBD681E80B20500E8D100BFF8E78C
:1011B00070B5FFF782FFFFF788FF0120FFF79CFF64
:1011C0000320FFF79FFF0120FFF7A6FF052630460B
:1011D000FFF7A8FF4FF4FA60FFF7ADFF05460DB12A
:1011E0006C7A00E0FF24204670BD2DE9F0410546F1
:1011F000FFF763FFFFF769FF0120FFF77DFF042082
:10120000FFF780FF0220FFF787FF2846FFF74AFF1E
:10121000EF1D3846FFF786FF4FF4FA60FFF78BFFAC
:1012200006460EB1747A00E0FF242046BDE8F08146
:1012300070B5FFF742FFFFF748FF0120FFF75CFFA3
:101240000320FFF75FFF0320FFF766FF0726304606
:10125000FFF768FF4FF4FA60FFF76DFF05460DB129
:101260006C7A00E0FF24204670BD2DE9F0478146EE
:101270000D4616461F46FFF720FFFFF726FF012009
:10128000FFF73AFF0820FFF73DFFFFE04F4B00005C
:10129000CAFDBEDDB0FCBDD3CAD5B4EDCEF30000AF
:1012A000B4ABB8D0C6F7C9CFC3BBD3D0CAD6D6B8B3
:1012B00000000000C2BCC8EBD6B8CEC6CDBCCFF192
:1012C000CAA7B0DC00000000D6B8CEC6CDBCCFF1B6
:1012D000CCABB8C9A1A2CCABB5ADB6F8C9FAB2BB1C
:1012E000B3C9CCD8D5F70000D6B8CEC6CDBCCFF1A7
:1012F000CCABCAAAA1A2CCABBAFDB6F8C9FAB2BBB4
:10130000B3C9CCD8D5F70000D6B8CEC6CDBCCFF186
:10131000CCABC2D2B6F8C9FAB2BBB3C9CCD8D5F7F8
:1013200000000000D6B8CEC6CDBCCFF1D5FDB3A32A
:10133000A3ACB5ABCCD8D5F7B5E3CCABC9D9A3A892
:10134000BBF2C3E6BBFDCCABD0A1A3A9B6F8C9FAEA
:10135000B2BBB3C9CCD8D5F700000000D6B8CEC612
:10136000B2BBC6A5C5E40000C3BBCBD1CBF7B5BDAE
:10137000D6B8CEC600000000CCD8D5F7BACFB2A2FE
:10138000CAA7B0DC00000000B7C3CECAD6B8CEC62C
:10139000BFE2CAB1B5D8D6B7D0F2BAC5B3ACB3F6CE
:1013A000D6B8CEC6BFE2B7B6CEA70000C9BEB3FD61
:1013B000C4A3B0E5CAA7B0DC00000000C7E5BFD5F4
:1013C000D6B8CEC6BFE2CAA7B0DC0000BBBAB3E550
:1013D000C7F8C4DAC3BBD3D0D3D0D0A7D4ADCABC6E
:1013E000CDBCB6F8C9FAB2BBB3C9CDBCCFF10000D1
:1013F000B6C1D0B420464C41534820B3F6B4ED00FA
:10140000CEB4B6A8D2E5B4EDCEF30000CEDED0A7C0
:10141000BCC4B4E6C6F7BAC500000000BCC4B4E65C
:10142000C6F7C9E8B6A8C4DAC8DDB4EDCEF300004B
:10143000BCC7CAC2B1BED2B3C2EBD6B8B6A8B4ED6F
:10144000CEF30000D6B8CEC6BFE2C2FA000000005C
:10145000B5D8D6B7B4EDCEF300000000C4A3BFE901
:10146000B7B5BBD8C8B7C8CFC2EBD3D0CEF3000056
:101470000D0A25640D0A00000008014000440040E8
:101480002400002020000020901200200420FFF7FC
:1014900043FE4846FFF706FE2812FFF703FEE8B2B8
:1014A000FFF700FE3012FFF7FDFDF0B2FFF7FAFD87
:1014B00009F10D0000EB2520E9B2084400EB2620DD
:1014C000F1B200EB010A5046FFF72CFE4FF4FA6030
:1014D000FFF731FE044664B194F80980E07AA17AFE
:1014E00000EB01203880607B217B00EB01207880BD
:1014F00001E04FF0FF084046BDE8F08770B5FFF708
:10150000DCFDFFF7E2FD0120FFF7F6FD0320FFF70A
:10151000F9FD0520FFF700FE09263046FFF702FE21
:101520004FF4FA60FFF707FE05460DB16C7A00E054
:10153000FF24204670BD2DE9F04106460C46FFF71A
:10154000BCFDFFF7C2FD0120FFF7D6FD0620FFF727
:10155000D9FD0620FFF7E0FD3046FFF7A3FD20127E
:10156000FFF7A0FDE0B2FFF79DFD06F10D0000EBD7
:101570002420E1B200EB01084046FFF7D3FD4FF411
:10158000FA60FFF7D8FD07460FB17D7A00E0FF252E
:101590002846BDE8F0812DE9F04104460D46FFF7ED
:1015A0008CFDFFF792FD0120FFF7A6FD0720FFF756
:1015B000A9FD0C20FFF7B0FD2012FFF773FDE0B28C
:1015C000FFF770FD2812FFF76DFDE8B2FFF76AFD27
:1015D000142000EB2420E1B2084400EB2520E9B2FE
:1015E00000EB01084046FFF79DFD4FF4FA60FFF75E
:1015F000A2FD07460FB17E7A00E0FF263046BDE827
:10160000F08170B5FFF759FDFFF75FFD0120FFF78F
:1016100073FD0320FFF776FD0D20FFF77DFD1126FA
:101620003046FFF77FFD4FF4FA60FFF784FD054673
:101630000DB16C7A00E0FF24204670BD2DE9F04723
:1016400006460D46FFF739FDFFF73FFD0120FFF786
:1016500053FD0520FFF756FD0E20FFF75DFD3046D8
:10166000FFF720FD2846FFF71DFD701900F1140853
:101670004046FFF757FD4FF4FA60FFF75CFD074661
:101680000FB17C7A00E0FF241CB9FDA00AF014FA27
:1016900007E02046FFF7A2FC81464946FDA00AF07C
:1016A0000BFA2046BDE8F0872DE9F0410546FFF72B
:1016B00004FDFFF70AFD0120FFF71EFD0320FFF7E1
:1016C00021FD0F20FFF728FD13273846FFF72AFDDD
:1016D0004FF47A70FFF72FFD0446BCB1667AE07BC9
:1016E000A17B00EB01202880607CA870A07C000614
:1016F000E17C00EB0140217D00EB0120617D08448D
:101700006860E07D2872607E687200E0FF26A6B9FE
:101710002988E2A00AF0D0F9A978E6A00AF0CCF96D
:10172000E8A069680AF0C8F9687A4FF4165200FB1D
:1017300002F1E7A00AF0C0F907E03046FFF74EFCDF
:1017400080464146D3A00AF0B7F93046BDE8F081A3
:101750002DE9F0410446FFF7B0FCFFF7B6FC01208D
:10176000FFF7CAFC0720FFF7CDFC1520FFF7D4FCDC
:10177000200EFFF797FCC4F30740FFF793FCC4F378
:101780000720FFF78FFCE0B2FFF78CFC1D2000EB79
:101790001460C4F307410844C4F307210844E1B2CC
:1017A00047183846FFF7BEFCCC4804604FF4FA6097
:1017B000FFF7C1FC06460EB1757A00E0FF25C74869
:1017C00004601DB9C6A00AF077F907E02846FFF7C4
:1017D00005FC80464146AFA00AF06EF92846BDE8F8
:1017E000F0812DE9F04781460E46FFF766FCFFF7D2
:1017F0006CFC0120FFF780FC2420FFF783FC1820FD
:10180000FFF78AFC4846FFF74DFC002407E0305DF7
:10181000FFF748FC305D384487B2601CC4B2202C0E
:10182000F5DB09F13D00384487B23846FFF77AFC12
:101830004FF4FA60FFF77FFC054615B195F8098073
:1018400001E04FF0FF084046BDE8F0872DE9F04782
:1018500007468846FFF731FCFFF737FC0120FFF70A
:101860004BFC0420FFF74EFC1920FFF755FC3846CF
:10187000FFF718FC07F11E094846FFF753FC4FF429
:10188000FA60FFF758FC064666B1757A002406E058
:1018900004F10A00305C08F80400601CC4B2202C7B
:1018A000F6DB00E0FF252846BDE8F0872DE9F0478C
:1018B00081460D4616461F46FFF7FFFBFFF705FC66
:1018C0000120FFF719FC0820FFF71CFC1B20FFF785
:1018D00023FC4846FFF7E6FB2812FFF7E3FBE8B2DC
:1018E000FFF7E0FB3012FFF7DDFBF0B2FFF7DAFBAA
:1018F00009F1240000EB2520E9B2084400EB262082
:10190000F1B200EB010A5046FFF70CFC4FF4FA600D
:10191000FFF711FC044664B194F80980E07AA17ADB
:1019200000EB01203880607B217B00EB0120788078
:1019300001E04FF0FF084046BDE8F0872DE9F04197
:101940000646FFF7BAFBFFF7C0FB0120FFF7D4FB09
:101950000320FFF7D7FB1D20FFF7DEFB21273846CA
:10196000FFF7E0FB4FF4FA60FFF7E5FB044634B104
:10197000657AE07AA17A00EB0120308000E0FF2553
:101980003DB9E07AA27A00EB02215AA00AF094F85D
:1019900007E02846FFF722FB804641463DA00AF0BB
:1019A0008BF82846BDE8F08110B50446FFF785FBAB
:1019B000FFF78BFB0120FFF775FB0020FFF772FBA1
:1019C0000020FFF76FFBC82003F03FF94E48008866
:1019D00000F4004008B34D480078EF281AD14B4876
:1019E0004078012816D149488079072812D1474804
:1019F000807800064549C97800EB014043490979E0
:101A000000EB0120414949790844206000203E490B
:101A1000088010BD00203C4908800120F9E738B556
:101A2000FFF7C6FB0446002C29D101203849086085
:101A3000FFF7DBFB044604BB00203549086035484E
:101A400002886B4600210120FFF730FF0446ACB945
:101A50003221002005F05FFB05462946002005F0F5
:101A60004AFB00202A490C390860642003F0EDF895
:101A700001202949C1F8940157E053E04EE05BE0B2
:101A80000D0AC9E8D6C3B2CECAFDB3C9B9A6A3A18F
:101A9000000000000D0A2573000000000D0AC4A319
:101AA000BFE9D7EEB4F3D6B8CEC6C8DDC1BF3D2579
:101AB000640000000D0AB6D4B1C8B5C8BCB63D2557
:101AC000640000000D0AB5D8D6B73D2578000000A7
:101AD0000D0AB2A8CCD8C2CA3D256400240000205B
:101AE0000D0AC9E8D6C3B5D8D6B7B3C9B9A6A3A15C
:101AF000000000000D0AD3D0D0A7D6B8CEC6B8F6E5
:101B0000CAFD3D2564000000200000209012002046
:101B1000A081214284020020008021422046FFF75C
:101B2000A3FA02E02046FFF79FFA0020034908606D
:101B30004FF4167003F089F838BD0000A0812142EF
:101B400001460020012900D011B9FE4B197000E0B8
:101B5000262070470146FC4A506820F0FF000843E9
:101B60005060704770B5044605E0F748456B05F0D6
:101B7000450000B100E0F8E700BF042005F0A3F83D
:101B800020B1042005F0A9F8032070BD012005F064
:101B90009AF820B1012005F0A0F80120F5E7EA4805
:101BA0000069A04201D01020EFE740F2FF50E64963
:101BB00088630846406908210840C0B2E5E72DE97E
:101BC000FC4107460D4600260024002000900190AD
:101BD0000820DE490860102048604020886000200E
:101BE000C8604FF480600861084604F0F5FF1020DB
:101BF000FFF7B8FF044614B12046BDE8FC81D44885
:101C000000880004D149086037204860402088607F
:101C10000020C8604FF480600861084604F0DCFFD3
:101C20003720FFF79FFF04460CB12046E5E74FF051
:101C3000FF30C849086008204860302088600220D2
:101C4000C8600020086101204861084604F0EDFFEB
:101C50000020BE4908603320486040208860002092
:101C6000C8604FF480600861084604F0B5FF332077
:101C7000FFF778FF04460CB12046BEE70CE04FF4B6
:101C8000001005F020F838B104F0F1FF4DF82600FF
:101C9000761C022E00D306E0AB48406B40F22A616E
:101CA00008400028EBD000BF082005F00CF820B158
:101CB000082005F012F804209FE7022005F003F841
:101CC00020B1022005F009F8022096E7202004F058
:101CD000FAFF20B1202005F000F806208DE74FF430
:101CE000007004F0F0FF28B14FF4007004F0F5FF2D
:101CF000072082E740F2FF5004F0EFFF0098000653
:101D0000009901F47F4140EA0120009901F47F012C
:101D100040EA1120009940EA1160686001980006CD
:101D2000019901F47F4140EA0120019901F47F010A
:101D300040EA1120019940EA1160286020465CE7E2
:101D40007CB50546002400200090019000260DB1CE
:101D5000022600E000267C48406900F0007008B1CF
:101D60000E207CBD7A49098888B26946FFF727FFB3
:101D700004460CB12046F4E7019800F4802060B3DB
:101D8000734800880004714908603720486040208B
:101D900088600020C8604FF480600861084604F045
:101DA0001BFF3720FFF7DEFE04460CB12046D8E7C4
:101DB000664806600620654948604020886000202B
:101DC000C8604FF480600861084604F005FF0620F3
:101DD000FFF7C8FE04462046C3E72520C1E770B5DB
:101DE000044600255C480078032801D1272070BDF7
:101DF0005948007838B158480078012803D056482F
:101E00000078022818D1022C01D32720EFE7E0B296
:101E1000FFF796FF05467DB94B48406820F4C05057
:101E20004949486008464068A1B240EAC120464995
:101E300048600846406848602846D8E710B5044620
:101E400042480460072041494860402088600020E3
:101E5000C8604FF480600861084604F0BDFE0720AA
:101E6000FFF780FE10BDF0B50146002000223A4B7E
:101E70001B7881F85630364B1B88A1F85430374B0D
:101E80001B681A0E93090B70C2F383034B7002F0A8
:101E900003038B70314B1B68C3F30742CA702F4B8F
:101EA0001B88C3F307220A712C4B1A784A715B68AE
:101EB0001A0E1301CB80294B5B68C3F30742CB8812
:101EC00043EA1213CB8002F00F030B72234B9B8863
:101ED000C3F30722D3094B72C2F380138B72C2F390
:101EE0004013CB72C2F300130B7300234B731A4BD6
:101EF0001B783BB1184B1B78012B03D0164B1B787A
:101F0000032B5ED193071B0D0B61144B1A790B69E0
:101F100043EA82030B61114B9B681A0E0B6943EA7B
:101F200092130B61C2F3C2030B7502F007034B75EA
:101F30000A4B9B68C3F3074253098B75C2F38203B4
:101F4000CB750DE03400002000800140C815002052
:101F500030000020DC1500202C000020F4150020AB
:101F600093075B0F0B76F74B1B89C3F307220B7E9E
:101F700043EAD2130B760B695B1C0024C1E91234CF
:101F80000B7E9B1C012404FA03F3DC17D1E91256E3
:101F9000A5FB037C06FB03C305FB0433C1E91273F5
:101FA0000C7A0123A3400B650024D1E912650B6D67
:101FB000A6FB037C05FB03C306FB0433C1E91273D4
:101FC0002EE0E14B1B78022B2AD1DE4B1A799306C7
:101FD0009B0A0B61DB4B9B681A0E0B6943EA0223D9
:101FE0000B61D84B9B68C3F307420B6913430B612A
:101FF000D44B1B89C3F307220B695B1C4FF400749D
:10200000A3FB04464FF480630025A4FB037C06FB7E
:1020100003C304FB0533C1E912734FF400730B656E
:10202000C2F3801301F8193F93065B0E4B70C54B4A
:102030001A7A4B7843EAD2134B7002F07F038B700D
:10204000C04BDB681A0ED309CB70C2F341130B717E
:10205000C2F382034B7193071B0F8B71B94BDB6883
:10206000C3F307428B7943EA92138B71C2F3401397
:10207000CB7100230B7202F001034B72B14B9B89B1
:10208000C3F30722D3098B72C2F38013CB72C2F35E
:1020900040130B73C2F300134B73C2F381038B73B2
:1020A00002F00303CB73A74B1A7B53080B74012375
:1020B0004B74A64B1B681A0ECA741939A34B1B68C4
:1020C000C3F307421402CC85A04B1B88C3F307223D
:1020D000CB8D1343CB859D4B1A7814060C635B683C
:1020E0001A0E0B6B43EA02440C63984B5B68C3F314
:1020F00007420B6B43EA02240C63944B9B88C3F3A7
:1021000007220B6B13430B63904B1A7934235A54F9
:102110008E4B9B681A0E35235A548C4B9B68C3F325
:10212000074214068C63894B1B89C3F307228B6B10
:1021300043EA02448C63854B1A7A8B6B43EA022490
:102140008C63824BDB681A0E8B6B13438B637F4B64
:10215000DB68C3F307423C235B5C43EA12143C2375
:102160005C5413071C0DCC87784B9B89C3F3072263
:10217000CB8F1343CB87754B1A7B540840235C5499
:10218000012441235C54F0BD70B500264FF4803526
:1021900005E06F48446B04F0450000B103E02800FF
:1021A000A5F10105F5D100BF15B104F0040028B177
:1021B0000326042004F091FD304670BD012004F098
:1021C00082FD18B10126012004F087FD40F2FF5086
:1021D00004F083FD3046F0E72DE9F04105460E4658
:1021E0004FF0000805E05A48476B07F0450000B182
:1021F00000E0F8E700BF042004F065FD28B10420EA
:1022000004F06BFD0320BDE8F081012004F05BFDCC
:1022100020B1012004F061FD0120F4E74C48006981
:10222000A84201D01020EEE740F2FF5004F055FD27
:102230004748446904F4604018B9200C3080404697
:10224000E1E704F4005008B11320DCE704F4804017
:1022500008B11020D7E704F4004008B10F20D2E7FE
:102260004046D0E738B500240120009004F09FFCE0
:1022700008B9252038BD34480078042821D0002032
:102280003449086002204860C02088600020C8608F
:102290004FF480600861084604F09EFCFFF774FF6D
:1022A00004460CB12046E5E7294840692749086003
:1022B0002748806948602648C06988602448006AC9
:1022C000C8602148007858B11F480078012807D01D
:1022D0001D480078062803D01B480078022816D134
:1022E00000201C49086003204860402088600020CE
:1022F000C8604FF480600861084604F06DFC6946D0
:102300000320FFF769FF04460CB12046B2E70E48F0
:102310000078032820D1BDF8000000040D490860B2
:1023200003204860402088600020C8604FF480602F
:102330000861084604F050FCFFF726FF04465CB134
:10234000204697E7F41500202C00002004160020FA
:1023500000800140C8150020FE480078042827D0DE
:10236000BDF80000FC490860BDF800000004FB490E
:10237000086009204860C02088600020C8604FF4D1
:1023800080600861084604F027FCFFF7FDFE044664
:102390000CB120466EE7F2484069F2490860F04807
:1023A00080694860EE48C0698860ED48006AC8608E
:1023B00000205FE710B505E0E948446B04F04500F4
:1023C00000B100E0F8E700BF042004F07CFC20B17D
:1023D000042004F082FC032010BD40F2FF5004F002
:1023E0007CFC0020F8E770B500264FF4803505E04E
:1023F000DB48446B04F0450000B103E02800A5F180
:102400000105F5D100BF15B104F0040028B1032681
:10241000042004F062FC304670BD04F0400018B1A6
:102420000026402004F059FC3046F5E770B5002541
:102430004FF4803404E0802004F045FC00B103E058
:102440002000A4F10104F6D100BF0CB9032070BD37
:1024500040F2FF5004F041FC2846F8E72DE9F04730
:102460000027002400260025A046A146B220BE4930
:1024700008750020086048608860C86008610846E8
:1024800004F06AFB032004F087FB012004F081FBC9
:1024900000BF12E00020B149086048608860C86051
:1024A0004FF480600861084604F096FBFFF7BEFF1A
:1024B000044604B903E0781CC7B24A2FEADB00BF28
:1024C00014B12046BDE8F0874FF4D570A3490860E9
:1024D00008204860402088600020C8604FF4806079
:1024E0000861084604F078FBFFF77DFF044624B935
:1024F0000120984908704FF08049002097490860F2
:1025000037204860402088600020C8604FF4806019
:102510000861084604F060FB3720FFF723FB044600
:10252000002C4BD134E000208C49086037204860F3
:10253000402088600020C8604FF480600861084631
:1025400004F04AFB3720FFF70DFB04460CB1204690
:10255000B8E7864849EA00008049086029204860B9
:10256000402088600020C8604FF480600861084601
:1025700004F032FBFFF71EFF04460CB12046A1E732
:1025800077484669012080EAD67080F001086D1C0A
:10259000B8F1000F03D14FF6FF708542C3D34FF659
:1025A000FF70854202D31B2420468BE706F0804053
:1025B000060032D00220674908702EE01CE06C480B
:1025C0006649086001204860402088600020C8609B
:1025D0004FF480600861084604F0FEFAFFF7EAFE57
:1025E00004460CB120466DE75D484669012080EA4B
:1025F000D67080F001086D1CB8F1000F03D14FF6C2
:10260000FF708542DBD34FF6FF70854202D31B2457
:10261000204657E703204F490870204652E77CB513
:10262000002500240121302002F08CFF012140F21E
:10263000024002F07AFF4FF4F850ADF80000182085
:102640008DF8030003208DF802006946494802F026
:10265000BDFC0420ADF8000018208DF80300032015
:102660008DF802006946444802F0B0FC8020ADF8C5
:10267000000048208DF8030003208DF80200694611
:102680003D4802F0A3FC04F059FA31208DF8040013
:1026900000208DF805008DF8060001208DF8070058
:1026A00001A802F0CAFBFFF7D9FE044614B9FFF7F0
:1026B000D9FD04461CB93148FFF7D5FB044634B9AF
:1026C0002E49B1F854100804FFF7B8FB04461CB9B2
:1026D0000120FFF784FB04461CB11E480078032844
:1026E00012D1264890F8560020B1244890F85600A0
:1026F000012801D10A2500E004252846FFF72AFA1F
:102700000020FFF71DFA044620467CBD10B50020CE
:1027100004F042FA002010BD70B58CB006460C469D
:1027200015460121022002F000FF154804F0F0FADE
:102730000021134804F0B9FB09488030019002964B
:102740000395A0080490002005908020069080004A
:10275000079017E02C00002030000020C815002052
:1027600000800140F4150020B0150020000010800A
:102770000080FF8000100140001401401816002066
:102780004404024080000890002009904FF400505B
:102790000A9000200B9001A9FA4804F05BFB00218D
:1027A000F84804F082FB0CB070BD0146002002E046
:1027B0004910421CD0B20129FAD170472DE9F84FD7
:1027C0008146174698460A9C4FF0000AD3464D466C
:1027D0004FF0FF36B9F1000F02D12620BDE8F88F87
:1027E0000020E949C862E9480078022805D10402BE
:1027F000780A40EAC8574FEA68280020E449886010
:102800004860401E0860012048610020C8600861DF
:10281000084604F00AFADC48406900F0007008B18C
:102820000E20DBE7002C21DDB4F5006F1EDC601EFE
:102830002040D8B92046FFF7B8FF0090D548046083
:102840001020D4494860402088600020C8604FF4C0
:1028500080600861084604F0BFF91020FFF782F994
:102860008246BAF1000F03D05046B7E72620B5E7FD
:1028700000980001C6498860084644604FF0FF3068
:102880000860012048610220C860002008610846F5
:1028900004F0CBF9BF4807601120BE4948604020D2
:1028A00088600020C8604FF480600861084604F02A
:1028B00093F91120FFF756F98246BAF1000F01D0C3
:1028C00050468BE7B448007800285AD102F0ECF962
:1028D00018E04FF4004004F0F6F978B14FF0000B27
:1028E00006E0A9488030006845F82B000BF1010B89
:1028F000BBF1080FF5D32035A84E03E00EB9042034
:102900006CE7761EA048406B40F22A610840002820
:10291000DFD0082004F0D7F920B1082004F0DDF959
:1029200004205BE7022004F0CEF920B1022004F07D
:10293000D4F9022052E7202004F0C5F920B120206C
:1029400004F0CBF9062049E74FF4007004F0BBF91E
:1029500028B14FF4007004F0C0F907203EE703E00F
:1029600004F085F928602D1D4FF4001004F0ABF938
:102970000028F5D102F09AF940F2FF5004F0ADF9C9
:1029800032E08548007801282ED1002221464846B1
:10299000FFF7C2FE00208249087082490870824910
:1029A00008707948C06B40F22A3108437649C86301
:1029B000012004F00EF900E0761E724844380068E9
:1029C00000F4005038B97848007820B9744800788D
:1029D00008B9002EF0D10EB90420FFE67048007847
:1029E00010B16F4890F800A05046F7E62DE9FF5F60
:1029F00017469846DDE90E464FF00009CA464FF0EB
:102A0000FF356A490098086000205F49C8625F4846
:102A10000078022805D10402780A40EAC8574FEA34
:102A2000682800205A4988604860401E08600120DC
:102A300048610020C8600861084604F0F6F8524872
:102A4000406900F0007018B10E2004B0BDE8F09F9E
:102A5000002C21DDB4F5006F1EDC601E2040D8B9CB
:102A60002046FFF7A2FE83464A48046010204949E9
:102A70004860402088600020C8604FF48060086192
:102A8000084604F0A9F81020FFF76CF88146B9F168
:102A9000000F03D04846D8E72620D6E7012E70D98C
:102AA00006FB04F0B0F1007F01D32620CDE74FEA0A
:102AB0000B103749886006FB04F048604FF0FF3088
:102AC0000860012048610220C860002008610846B3
:102AD00004F0ABF82F48076012202E4948604020D0
:102AE00088600020C8604FF480600861084604F0E8
:102AF00073F81220FFF736F88146B9F1000F01D0C4
:102B00004846A2E72448007800287DD102F0CCF89E
:102B10001EE04FF4004004F0D6F8A8B14FF0000AD0
:102B200008E01948803000682049096841F82A0007
:102B30000AF1010ABAF1080FF3D31C4800682030EB
:102B40001A490860154D03E00DB904207DE76D1E9C
:102B50000D48406B40F22A3108400028D9D00820A7
:102B600004F0B1F820B1082004F0B7F804206CE7B5
:102B7000022004F0A8F8D8B1022004F0AEF8022038
:102B800063E7A4E044040240008001402C000020E0
:102B9000DC150020C815002034000020FFFF7F0056
:102BA00036000020350000203700002038000020CB
:102BB000202004F088F820B1202004F08EF80620B0
:102BC00043E74FF4007004F07EF828B14FF4007032
:102BD00004F083F8072038E709E004F048F8FA49E0
:102BE00009680860F8480068001DF74908604FF45C
:102BF000001004F068F80028EFD14FF4807004F062
:102C000062F820B3F14800E028E0007838B1EF48DE
:102C10000078012803D0ED480078022817D1002061
:102C2000EB4908600C204860402088600020C860A4
:102C30004FF480600861084603F0CEFF0C20FEF7D9
:102C400091FF8146B9F1000F01D04846FDE602F040
:102C50002DF840F2FF5004F040F838E0DD480078ED
:102C6000012834D106FB04F100220098FFF754FD3F
:102C70000020D94908700120D84908700020D8499F
:102C80000870D848C06B40F22A310843D549C86360
:102C90000846C06A40F00800C86200E06D1ED248D5
:102CA000006800F4005008B9002DF7D10DB90420D8
:102CB000CBE600BFCA48007818B9C748007800289A
:102CC000F8D0C548007810B1C34890F80090484645
:102CD000BBE61CB50446002001900090C348008864
:102CE0000004BB4908600D20486040208860002037
:102CF000C8604FF480600861084603F06DFFB94872
:102D0000406B009002E0B748406B0090009800F0E4
:102D100045000028F7D0012003F0D5FF20B10120A5
:102D200003F0DBFF01201CBD042003F0CCFF20B129
:102D3000042003F0D2FF0320F5E7AA4800690D281C
:102D400001D01020EFE740F2FF5003F0C6FFA54886
:102D5000406901900198C0F3432020700020E2E711
:102D60002DE9FF5F86B017469846149D0026002087
:102D700005900490002481460390824602900195BC
:102D8000DDF818B0DDF818B0BBF1000F03D1262034
:102D90000AB0BDE8F09F00209249C862944988605B
:102DA0004860401E0860012048610020C86008613A
:102DB000084603F03AFF8B48406900F0007008B104
:102DC0000E20E5E781480078022805D10502780A3F
:102DD00040EAC8574FEA6828002D1FDDB5F5006F9F
:102DE0001CDC681E2840C8B92846FFF7DEFC0590A9
:102DF00077480560102076494860402088600020B0
:102E0000C8604FF480600861084603F0E5FE1020BA
:102E1000FEF7A8FE06461EB13046B9E72620B7E702
:102E20007248008800046A4908600D20486040200C
:102E300088600020C8604FF480600861084603F095
:102E4000CBFE0D20FEF78EFE06460EB130469FE704
:102E50006448406903904FF0FF341BE0641E6348F0
:102E6000008800045A4908600D20486040208860AE
:102E70000020C8604FF480600861084603F0ACFE93
:102E80000D20FEF76FFE06460EB1304680E755482E
:102E900040690390039800F4807008B9002CDDD1DC
:102EA0000CB9292074E74A4807601820484948604F
:102EB000402088600020C8604FF4806008610846A8
:102EC00003F08AFE1820FEF74DFE06460EB130468E
:102ED0005EE7002041490870059800014449886078
:102EE000084645604FF0FF3008600120486100202F
:102EF000C8600861084603F098FE4FF0FF3435487B
:102F0000007800285FD101F0CFFE43E04FF480400D
:102F100003F0D9FEC8B30198A0EB0900202821D204
:102F20000198A0EB090000F0030020B90198A0EB84
:102F30000900800804E00198A0EB09008008401C0B
:102F400002904FF0000A09E0DBF8000003F093FE66
:102F50000AF1010A0BF1040B09F1040902988245F8
:102F6000F2D30FE04FF0000A05E05BF82A0003F00F
:102F700082FE0AF1010ABAF1080FF6D30BF1200B19
:102F800009F120096FF0404404E0FFE70CB9042088
:102F9000FEE6641E1348406B40F21A6108400028A8
:102FA000B4D0082003F08FFE20B1082003F095FE76
:102FB0000420EDE6022003F086FED8B1022003F0E3
:102FC0008CFE0220E4E630E0380000202C000020D7
:102FD000C8150020340000203600002035000020F5
:102FE0003700002000800140000402403000002033
:102FF000DC150020102003F066FE20B1102003F045
:103000006CFE0520C4E64FF4007003F05CFE28B1AE
:103010004FF4007003F061FE0720B9E601F046FEB0
:1030200040F2FF50FC4988633EE0FC4800780128EC
:103030003AD1102229460698FFF76EFB0020F84986
:103040000870F8490870F8490870F348C06B40F2FE
:103050001A310843F049C8630846C06A40F00800C6
:10306000C86200E0641EF148006800F4005008B92E
:10307000002CF7D11CB9FFF7D2FA042088E64FF0F4
:10308000FF3400E0641EE848007820B9E448007886
:1030900008B9002CF6D10CB9042079E6E048007894
:1030A00010B1DF48007873E640F2FF5003F015FEE0
:1030B00004A8FFF70EFE064603E004A8FFF709FE8A
:1030C00006463EB99DF810000728F6D09DF810007E
:1030D0000628F2D030465BE62DE9FF5F84B0DDE9DB
:1030E000124700260020039002900025804681466A
:1030F000019007FB04FBDDF810A0DDF810A0BAF189
:10310000000F03D1262008B0BDE8F09F0020C2497F
:10311000C862C74988604860401E08600120486155
:103120000020C8600861084603F07FFDBA48406986
:1031300000F0007008B10E20E5E7BE4800780228D4
:1031400008D10402DDE90601400A40EAC1504912F3
:10315000CDE90601002C1FDDB4F5006F1CDC601EFC
:103160002040C8B92046FFF720FB0390B248046016
:103170001020B1494860402088600020C8604FF4AA
:1031800080600861084603F027FD1020FEF7EAFC86
:1031900006461EB13046B6E72620B4E7012F6FD9A8
:1031A00007FB04F0B0F1007F01D32620ABE7A14874
:1031B000007838B19F480078012803D09D480078F6
:1031C00002282DD19D48008800049B4908603720C3
:1031D0004860402088600020C8604FF4806008612B
:1031E000084603F0F9FC3720FEF7BCFC06460EB19A
:1031F000304688E79048076017208F494860402094
:1032000088600020C8604FF480600861084603F0C1
:10321000E3FC1720FEF7A6FC06460EB1304672E727
:103220008549069808601920486040208860002081
:10323000C8604FF480600861084603F0CDFC192097
:10324000FEF790FC06460EB130465CE7039800019D
:103250007749886007FB04F048604FF0FF30086052
:10326000012048610020C8600861084603F0DDFCC9
:103270006A480078002871D1451E01F015FD40E034
:10328000F3E06548406B00F48040A8B3ABEB080066
:1032900020281ED2ABEB080000F0030018B9ABEBFE
:1032A0000800800803E0ABEB08008008401C019098
:1032B0004FF0000909E0DAF8000003F0DCFC09F146
:1032C00001090AF1040A08F1040801988145F2D3C2
:1032D0000FE04FF0000905E05AF8290003F0CBFC9D
:1032E00009F10109B9F1080FF6D30AF1200A08F132
:1032F00020086FF0404504E0FFE70DB9042002E725
:103300006D1E4548406B40F21A3108400028B8D085
:10331000082003F0D8FC20B1082003F0DEFC0420D4
:10332000F1E6022003F0CFFC20B1022003F0D5FC2F
:103330000220E8E6102003F0C6FC20B1102003F0C4
:10334000CCFC0520DFE64FF4007003F0BCFC30B18C
:103350004FF4007003F0C1FC0720D4E62CE04FF4DA
:10336000807003F0B0FC00B33248007838B13148C7
:103370000078012803D02F480078022815D10020BA
:103380002D4908600C204860402088600020C860FB
:103390004FF480600861084603F01EFC0C20FEF725
:1033A000E1FB06460EB13046ADE601F07FFC40F28F
:1033B000FF5003F092FC58E018480078012854D1DF
:1033C00007FB04F110220498FFF7A6F90020144926
:1033D00008700120134908700020134908700E4836
:1033E000C06B40F21A3108430B49C8630846C06AF3
:1033F00040F00800C8624FF0FF3500E06D1E0B483A
:10340000006800F4005008B9002DF7D1C5B9FFF7E6
:1034100006F9042077E60000008001403400002017
:103420003600002035000020370000200004024054
:10343000DC1500202C000020C815002030000020E2
:103440004FF0FF3500E06D1EC248007820B9C24839
:10345000007808B9002DF6D10DB9042053E6BE4816
:10346000007810B1BC4800784DE640F2FF5003F000
:1034700034FC02A8FFF72DFC064603E002A8FFF784
:1034800028FC06463EB99DF808000728F6D09DF8AE
:1034900008000628F2D0304635E610B5AF48406B3C
:1034A00000F4807070B3AE480078012814D1002079
:1034B000AC4908600C204860402088600020C8604B
:1034C0004FF480600861084603F086FB0C20FEF78D
:1034D00049FBA149087002E000209F4908709F48FD
:1034E000806B40F480709D4988630846C06B4CF245
:1034F0003A3188439949C863012096490870964833
:10350000007810BD022003F0DEFB68B1022003F05A
:10351000E4FB9248C06B4CF23A3188438F49C86350
:1035200002208D490870ECE7082003F0CCFB68B15D
:10353000082003F0D2FB8948C06B4CF23A31884333
:103540008649C863042084490870DAE7202003F024
:10355000BAFB68B1202003F0C0FB8048C06B4CF27E
:103560003A3188437D49C86306207B490870C8E723
:10357000102003F0A8FB68B1102003F0AEFB7748E1
:10358000C06B4CF23A3188437449C86305207249D4
:103590000870B6E74FF4007003F095FB70B14FF47C
:1035A000007003F09AFB6D48C06B4CF23A318843CF
:1035B0006A49C863072068490870A2E70020A0E7AD
:1035C00010B5FFF76AFF10BD70B50446002514B9A9
:1035D0002625284670BD64480088000461490860BB
:1035E0000D204860402088600020C8604FF4806053
:1035F0000861084603F0F0FA0D20FEF7B3FA05461D
:103600000DB12846E6E75548406920602846E1E7C5
:1036100008B5002000906846FFF7D6FF08B1FF20EC
:1036200008BD0098C0F34320FAE72DE9FE4F83461A
:103630000C46914600200290002625462C4670023A
:1036400040EAD5566D020BF00300F0B14FF0000ACE
:1036500018E04FF4007000904FEA4A20471946EBFB
:10366000E0733A464148FFF7A9F802904FF4007220
:103670003E49584608F031FC0BF5007B0AF1010089
:1036800000F0FF0ACA45E4DB16E0B9F1010F09D1E9
:103690004FF400702A46334600905846FFF78EF8E4
:1036A000029009E04FF400702A463346CDE9000944
:1036B0005846FFF79BF902900298BDE8FE8F2DE96E
:1036C000FE4F81460C469246002002900026254679
:1036D0002C46700240EAD5566D0209F00300F0B1A5
:1036E0004FF0000B18E04FF4007249461F4808F0F5
:1036F000F4FB4FF4007000904FEA4B20471946EB63
:10370000E0733A461948FFF72BFB029009F5007960
:103710000BF1010000F0FF0BD345E4DB16E0BAF13A
:10372000010F09D14FF400702A46334600904846F5
:10373000FFF716FB029009E04FF400702A4633466B
:10374000CDE9000A4846FFF7C7FC02900298BDE8A1
:10375000FE8F00003700002036000020008001406E
:1037600035000020C8150020300000207016002011
:1037700008B50121482001F0E5FE2720ADF8000042
:1037800010208DF8030003208DF8020069460F48D1
:1037900001F01CFC20210D4801F0C5FC01210B4863
:1037A00001F0C1FC0221094801F0BDFC04210748D9
:1037B00001F0B9FC2020ADF800006946044801F092
:1037C00005FC2021024801F0AEFC08BD000C0140C0
:1037D0000018014070B504460D462146FE4801F030
:1037E000ABFCFE4805600020FD49C1F89801FD4989
:1037F000086001200860F9490C310860F849C1F8F7
:103800008C0170BD70B500241CE004F1B001C8B299
:103810000021FFF7DFFF00210846FFF7DBFF002153
:103820001020FFF7D7FF002508E0EF4901EBC501A5
:10383000085D0121FFF7CEFF681CC5B2802DF4DBC7
:10384000601CC4B2082CE0DB70BD10B500218D20D7
:10385000FFF7C0FF00211420FFF7BCFF0021AF20BD
:10386000FFF7B8FF10BD10B500218D20FFF7B2FFA4
:1038700000211020FFF7AEFF0021AE20FFF7AAFFC6
:1038800010BD70B500240CE0002506E00020D649EC
:1038900001EBC5010855681CC5B2802DF6DB601C24
:1038A000C4B2082CF0DBFFF7ADFF70BDF0B51446D5
:1038B00000267F2801DC3F2900DDF0BD0B46CF1735
:1038C00001EB5777FF10C7F10707FAB2CF1701EBEB
:1038D0005777FF10A1EBC707FDB2C5F1070701231A
:1038E000BB40DEB24CB1C04B03EBC0039B5C334327
:1038F000BD4F07EBC007BB5408E0BB4B03EBC00355
:103900009B5CB343B84F07EBC007BB5400BFD4E781
:103910002DE9F04706460F4690469946DDF820A06F
:1039200034460CE03D4606E0524629462046FFF765
:10393000BDFF681CC5B24D45F6DD601CC4B24445F0
:10394000F0DDFFF75FFFBDE8F0872DE9F84F804617
:103950000F4616461C46BA462046E31704EB53733F
:10396000DB1021464FEAE47C04EB5C7C4FEAEC0C74
:10397000A4EBCC0CBCF1000F02D04FF0010C01E025
:103980004FF0000C6344224604EBD27C4FEA6C0CEF
:1039900003FB0CF303F0FF0BA6F12000C6B20025D9
:1039A0004EE00C2C07D106EB4600904901EB80005D
:1039B000405D009013E0102C05D18D4800EB0610FF
:1039C000405D00900BE0182C07D106EBC60089493A
:1039D00001EB8000405D009001E0BDE8F88F4FF002
:1039E000000927E0009800F0800028B139464046E1
:1039F0000A9AFFF75BFF09E00A9808B9012000E086
:103A00000020024639464046FFF750FF0098400626
:103A1000000E0090781CC7B2A7EB0A00A04205D1A7
:103A2000574608F1010000F0FF0806E009F1010027
:103A300000F0FF09B9F1080FD4DB00BF681CC5B264
:103A40005D45AEDB00BFC8E710B50246012000E0CF
:103A500050430B00A1F10104E1B2F9D110BD2DE9F1
:103A6000FF4F81B0074691461E460E9D4FF0000A5B
:103A7000002439E0301B401EC1B20A20FFF7E4FFEA
:103A8000B9FBF0F00A21B0FBF1F201FB1208BAF128
:103A9000000F16D1701EA04213DDB8F1000F0ED139
:103AA0000120AB4605EBDB71491001FB047100906E
:103AB000C8B22B4620220299FFF747FF12E04FF0D1
:103AC000010A0120AB4605EBDB71491001FB0471D3
:103AD0000090C8B208F13001CAB22B460299FFF734
:103AE00034FF00BF601CC4B2B442C3DB05B0BDE804
:103AF000F08FF8B506460F4615461C4621E004EB4C
:103B0000D4714910C1F18001B14202DA002638199E
:103B1000C7B2C4F14000B84204DA002006460746A6
:103B2000FFF7AFFE012000902A7823463946304641
:103B3000FFF70BFF204604EBD07106EB6101CEB21C
:103B40006D1C28787E2802DC28782028D7DAF8BD7A
:103B500008B501214FF4987001F0F4FC4820ADF84D
:103B6000000010208DF8030003208DF80200694644
:103B7000214801F02BFA48211F4801F0D4FAFF2018
:103B8000ADF800006946144801F020FAFF21124800
:103B900001F0C9FA4FF46040ADF8000069461748DB
:103BA00001F014FA4FF46041144801F0BCFA01200E
:103BB0000A490C3108600A49C1F88C010020094902
:103BC000091D0860642001F040F801200C49C1F88B
:103BD000BC010021AE2015E0001001408C81224282
:103BE00000802242B80124427018002016EC000820
:103BF0008AF000087AF60008001401400020014015
:103C000000002442FFF7E6FD0021D520FFF7E2FD8A
:103C100000215020FFF7DEFD0021A820FFF7DAFD8C
:103C200000213F20FFF7D6FD0021D320FFF7D2FD72
:103C300000210846FFF7CEFD00214020FFF7CAFD16
:103C400000218D20FFF7C6FD00211420FFF7C2FDE3
:103C500000212020FFF7BEFD00210220FFF7BAFD62
:103C60000021A120FFF7B6FD0021C020FFF7B2FD23
:103C70000021DA20FFF7AEFD00211220FFF7AAFD98
:103C800000218120FFF7A6FD0021EF20FFF7A2FD14
:103C90000021D920FFF79EFD0021F120FFF79AFDBA
:103CA0000021DB20FFF796FD00213020FFF792FD79
:103CB0000021A420FFF78EFD0021A620FFF78AFD3A
:103CC0000021AF20FFF786FDFFF7DBFD08BD0000F8
:103CD000322000E000BF0100A0F10102D0B2F9D112
:103CE00070475A2000E000BF0100A0F10102D0B2ED
:103CF000F9D1704708B50121102001F023FC4FF4E1
:103D0000C050ADF8000014208DF8030003208DF89A
:103D100002006946834801F059F901208249086090
:103D20008249C1F8AC0108BD00B57E48406820F466
:103D300070407C4948600846406840F44050486004
:103D400001207949091F08607849C1F8B001FFF7DF
:103D5000C8FF00207449091F0860FFF7C2FF002058
:103D60007249C1F8B00100BD00B56E48406820F44A
:103D700070406C4948600846406840F440504860D4
:103D80000020694908606949C1F8AC01FFF7A9FF43
:103D90000120654908606549C1F8AC01FFF7A1FF42
:103DA00000BD00B500235F48406820F470405D49C5
:103DB00048600846406840F40040486001205A4985
:103DC000091F0860FFF78DFF01205849C1F8B001B5
:103DD000FFF787FF07E0581CC3B2FA2B03DDFFF79C
:103DE000C3FF012000BD5048843800680028F2D18C
:103DF0004D49086000BFF5E700B500204A4908605A
:103E00004848406820F47040464948600846406889
:103E100040F44050486000204449C1F8AC01FFF72D
:103E200060FF012040490860FFF75BFF00203F4929
:103E3000C1F8B00100BD00B500203B490860394819
:103E4000406820F47040374948600846406840F4B4
:103E50004050486001203549C1F8AC01FFF741FFEF
:103E6000012031490860FFF73CFF00202F49C1F8CD
:103E7000B00100BD10B503462A48406820F47040E8
:103E8000284948600846406840F440504860002097
:103E900025490860002412E0D8092349091F086059
:103EA0005806030E01202149C1F8B001FFF719FFA0
:103EB00000201D490860FFF714FF601CC4B2082CE5
:103EC000EADB10BD30B5044600231648406820F4F4
:103ED0007040144948600846406840F4004048601B
:103EE000002514E0002010490860FFF7FAFE0120C9
:103EF0000E49C1F8B0015806030E0B48843800681B
:103F000008B1581CC3B2FFF7ECFE681CC5B2082DFF
:103F1000E8DB14B9FFF78FFF01E0FFF76DFF1846EC
:103F200030BD000000100140B001224200002242DA
:103F300070B505460C46FFF7F7FEAE20FFF79AFF77
:103F4000FFF72FFF00B111E02846FFF793FFFFF7BF
:103F500028FF00B10AE02046FFF78CFFFFF721FFA2
:103F600000B103E0FFF700FF012070BDFFF7FCFE8A
:103F70000020FAE710B540210620FFF7D9FF10BD59
:103F800070B50446FFF7D0FEAE20FFF773FFFFF7D2
:103F900008FF00B117E02046FFF76CFFFFF701FFB5
:103FA00000B110E0FFF7C0FEAF20FFF763FFFFF79F
:103FB000F8FE00B107E00020FFF784FF0546FFF799
:103FC000D3FE284670BDFFF7CFFE0020FAE770B59C
:103FD00004460720FFF7D4FF05462CB145F0400109
:103FE0000720FFF7A5FF04E025F040010720FFF7B9
:103FF0009FFF70BD70B504460D4644EA0510C1B27E
:104000000920FFF795FF70BD70B504460720FFF744
:10401000B7FF054605F0E30040EA8400C1B207207F
:10402000FFF786FF70BD70B504460720FFF7A8FFB5
:10403000054605F0FC0040EA04010720FFF778FF81
:1040400070BD10B5044621460620FFF771FF10BD74
:1040500010B5FFF74FFE0220FFF7F3FF0320FFF735
:10406000E2FF0120FFF7D0FF0B210846FFF7C2FF58
:104070000120FFF7ACFF10BD70B506460C46154693
:10408000FFF752FEAE20FFF7F5FEFFF78AFE18B1EC
:10409000FFF76AFE012070BD3046FFF7EBFEFFF729
:1040A00080FEFFF741FEAF20FFF7E4FEFFF779FE49
:1040B0000DE0012D04D10020FFF704FF207003E084
:1040C0000120FFF7FFFE2070681EC5B2641C002DA2
:1040D000EFD1FFF749FE0020DDE708B5042269466D
:1040E0000520FFF7C9FF9DF801009DF8001040EA88
:1040F0000120074908809DF803009DF8021040EA5E
:1041000001200449088008BD10B5FFF7E6FF10BD87
:104110003C0000203E00002000209A4908709A4888
:104120009A49086000209A4908609A4908609A49AB
:10413000086070472DE9FF5F0021964800680AF08B
:1041400049FC30D20021924800680AF043FC2AD290
:1041500092498F4800680AF0DFF980460AF042F978
:1041600006460F468B4800680AF03CF980464FF03F
:1041700066328B4B09F026FE32463B46CDE9000104
:1041800009F026FCCDE90201804800680AF02AF90E
:104190000446DDE902230AF03BF8824609F02AFBD7
:1041A0007A4908600DE0794800680AF01BF9064674
:1041B0007C4A7D4B09F006FE044609F01BFB73495F
:1041C00008607149714800680AF004FB02D26E4829
:1041D0006E490860BDE8FF9F02468A4201DD08463D
:1041E00070471046FCE72DE9FE4F04460020029080
:1041F0006448007805280CD2DFE800F0030C324A4E
:10420000920000F0F0FBB0F5FA6F02D901205D4991
:10421000087092E05D48016820460AF0DBFB0FD28F
:1042200020460AF06FFA06464FF44871FFF7D4FFB4
:1042300005460AF0A3FA5549086002205149087062
:1042400000F0D1FB54490968401AB0F5FA6F04D95F
:1042500000204F4908604F490860FFF76BFF6CE092
:104260004A48016820460AF0B5FA03D203204549BE
:1042700008700CE020460AF045FA06464FF44871F3
:10428000FFF7AAFF05460AF079FA4049086054E0B2
:10429000464920460AF0D2F805463C4801682846BF
:1042A0000AF098FA38D2012002903A4804600420BB
:1042B0003449087000F097FB37490968451A2846C9
:1042C0000AF074FA8146002148460AF0E7F91ED048
:1042D0002F4800680AF086F80746354A354B09F042
:1042E00071FD05460E4648460AF07CF807464FF039
:1042F0003332314B09F066FD2A463346CDE90001E1
:1043000009F0AAFA824609F075FA2149086000F01E
:104310006AFB2149086002E002201A4908700CE09B
:1043200000F061FB1C490968401AC82802D9012025
:1043300014490870FFF7FEFE00BF00BF0298BDE8F9
:10434000FE8F10B504462046FFF74DFF10BD70B537
:1043500000210F4800680AF0A1F90ED00C4801684E
:104360004FF07E500AF0D8F8054614490AF066FA74
:10437000044613490AF062FA70BD0020FCE70348C6
:1043800000687047440000200000A0414800002061
:104390004C0000205000002054000020000020416C
:1043A0006666E63FAE47E17A14AEEF3F0000F041AB
:1043B0009A9999999999D93F3333E33F00007A4408
:1043C00000007042002202600A607047086000230B
:1043D000136070472DE9F04105460E4614462768E4
:1043E000216830680AF02AFA804629460AF026F841
:1043F0002060394620680AF01FFBBDE8F0810146C5
:104400000868704700201649086070472DE9F14F91
:104410001348406812490860086809F0E3FF06463F
:10442000104A114B09F0CEFC04460D46009809F0E5
:10443000D9FF06460D4A0E4B09F0C4FC80462246C1
:104440002B4609F009FA824609F0D4F9044948607C
:104450000A465168106809F0F1FFBDE8F88F0000C6
:10446000580000205CDDC150084EE03F48457C5EAE
:10447000EF63CF3F0020CE490870CE490860CE4997
:104480000860CE490860CE490860CE49086008201F
:10449000CD4908700020CD490860704710B504462A
:1044A000CB480470FFF7E6FFCA4A111FCA48FFF75E
:1044B0008DFFCA4A111FC848FFF788FF0120BC4979
:1044C000087010BDC14A01681160704710B5FF2027
:1044D000FFF756FDC24908700846007811282CD114
:1044E000642000F0B2FB08210620FFF721FD162012
:1044F000FFF746FDBB4908701720FFF741FDBA4999
:1045000008704FF4967000F0A0FB0320FFF799FDB0
:104510000320FFF788FD0120FFF776FD07210846FD
:10452000FFF768FD0120FFF752FDFFF7F5FDA748F3
:10453000FFF7C8FF0320FFF7B1FF10BD00BFAB4975
:10454000098801F040010029F9D0A849091D088017
:10455000704770B506460D460320FFF7EFFFFC20BD
:10456000FFF7ECFF30460AF0CDF804B2E0B2FFF7F7
:10457000E5FFC4F30720FFF7E1FF28460AF0C2F881
:1045800004B2E0B2FFF7DAFFC4F30720FFF7D6FF6B
:10459000FC20FFF7D3FF0320FFF7D0FF70BD70476B
:1045A0002DE9FC5F4FF0000A0020019000F01BFA9B
:1045B00082490968A0EB010B584609F0B4FB074695
:1045C00000228B4B09F0FCFC7ED200F00CFA7B49F8
:1045D0000860FFF799FD874800880AF0E7F807466A
:1045E0007C4A111FFFF7F6FE0546834800880AF053
:1045F000DDF80746794A111FFFF7ECFE814685F08A
:1046000000473846FFF702FF06463046FFF799FE9F
:104610000446FFF79CFE074600210AF0DBF912D2A0
:1046200002206349087022464946284600F004F9F2
:10463000FFF78DFE07460AF065F80FFA80FA00F0E2
:1046400080F9019008E05A480078022804D101203E
:104650005749087000F0E4F85D480078012804D05C
:10466000022810D0032835D112E0634800880AF0F0
:104670009DF807465F4800880AF098F8804639465A
:10468000FFF767FF27E049462846FFF762FF22E071
:10469000BAF1780F09DD002058490860642000F065
:1046A000D4FA01205649C1F888011020032352464C
:1046B000282100900846FFF7D2F91020022300902D
:1046C00028216820019A00E00FE0FFF7C8F9FFF702
:1046D00099F800E000BF00BF3CB100213B480068F2
:1046E00009F0DCFF01D0FFF75AFFBDE8FC9F10B5D1
:1046F000FFF756FF10BD10B5FFF729FE10BD10B52E
:1047000000F01FF910BD3048007870472DE9F041E6
:1047100000F069F92A490968401AB0F5FA7F44D9CE
:1047200000242E48FFF76BFE06462A48FFF767FE77
:10473000074631460AF080F9054632490AF04AF93F
:104740000AD2214800780F2806DA1F480078401C5A
:104750001D490870012419E01E48FFF750FE064667
:104760001E48FFF74CFE074631460AF065F905463C
:1047700024490AF02FF909D213480078002805DDF2
:1047800011480078401E10490870012444B10E48B9
:1047900001780F20FFF72EFC00F025F90949086089
:1047A00000F021F90649086000BFBDE8F081000073
:1047B00064000020680000206C00002070000020D1
:1047C00074000020780000207C00002060000020A1
:1047D00065000020840000203333733F8C000020EC
:1047E000900000209100002092000020003801403D
:1047F000000024403C0000203E000020888121422F
:104800000080214200B8884700204F4908604F4986
:1048100008604F4908704F4908604F490870704759
:1048200000204C49086049490860474908604849E8
:1048300008704949087070472DE9F04F8BB0044665
:10484000894692462146204609F0F8FF05463E4833
:104850000168284609F0F2FD3B4908604946484690
:1048600009F0ECFF054639480168284609F0E6FDE5
:104870003649086037480068401C36490860BAF17C
:10488000000F5BD032480078401C31490870084660
:104890000078032852D12F48006809F087FF80462E
:1048A00041462948006809F037FE074609F09AFD9D
:1048B000054608F09FFDCDE904012648006809F08F
:1048C00075FF014601902148006809F025FE8346E6
:1048D00009F088FD074608F08DFD054600221F4BB4
:1048E00009F070FACDE90201DDE9042309F070F85E
:1048F000CDE9060108F07EFF0990002008901849D4
:1049000009980AF067F806D2099809F017FF4238AB
:10491000C0B208900AE0134909980AF05BF805D282
:10492000099809F00BFF3238C0B20890FFF778FF02
:104930000D490898085C0849087000BF0BB0BDE835
:10494000F08F054800787047C0000020C4000020A8
:10495000C8000020CC000020D000002000005940FA
:104960000000844200004842940000207FB50546C4
:104970000C460121022000F0F2FDADF80850ADF820
:1049800004400020ADF80A00ADF8060001A9174860
:1049900001F09AFA01221146144801F00CFE1D2084
:1049A0008DF8000000208DF8010003208DF8020032
:1049B00001208DF80300684600F03FFA01210B4802
:1049C00001F0DEFD7FBD10B50121084802F0A1F81D
:1049D00040B107480068401C0549086001210348B0
:1049E00002F0A8F810BD02480068704700040040BB
:1049F000D400002008B51C208DF8000000208DF8A0
:104A000001008DF8020001208DF80300684600F0D7
:104A100014FA08BD08B50121042000F093FD02201E
:104A2000ADF8000004208DF803006946614800F0ED
:104A3000CDFA0120ADF8000010208DF8030003200E
:104A40008DF8020069465B4800F0C0FA08BD0EB55B
:104A50000121084600F083FD4FF0804001F060F92D
:104A600041F28830ADF804000020ADF80000ADF848
:104A70000600ADF8020069464FF0804001F024FACC
:104A8000012240F26711900701F021FE00214FF052
:104A9000804001F075FE01221146900701F08BFD68
:104AA00000214FF0804001F06BFD0EBD424800BF79
:104AB0000100A0F10100FBD170472DE9F04F8FB04C
:104AC00000200D900C9001213A4800F02CFBFFF7DC
:104AD000EDFF0121374800F028FB0121880701F094
:104AE0004FFD00BF0221334800F003FB18B93348E3
:104AF00000680028F6D000204FF08041888400BF75
:104B000002212C4800F0F5FA18B12C480068002862
:104B1000F6D000214FF0804001F032FD27480068B8
:104B200028B10020254908600FB0BDE8F08F4FF094
:104B3000804001F0DCFF0C900C9809F0F4F8064678
:104B400000221F4B08F044FF044600221D4B09F0D1
:104B500039F9CDE902010C9809F0E5F80646002282
:104B6000174B08F035FF04460022164B09F02AF9CE
:104B7000CDE90001DDE9022309F024F90022124BFE
:104B8000CDE9040109F044FB804608F0E1FD8246CE
:104B900008F030FE079009F025FC00220B4BCDE910
:104BA000080108F059FECDE90A0108F023FE0D9036
:104BB0000D98B9E700080140A0860100D800002048
:104BC000000034400000314000886340000028406D
:104BD00010B56FF0040000F07AF92E4800682E49F5
:104BE000B0FBF1F02D4908700846007800EB400159
:104BF000C1EBC0104FF6FF7101EAC00028490880E0
:104C000010BD0146254A12784A434FF0E0235A610D
:104C100000229A611A46126942F001021A6100BF2D
:104C20004FF0E022106900F001021AB100F4803266
:104C3000002AF5D04FF0E022126922F001024FF075
:104C4000E0231A6100229A6170470146144A1288D3
:104C50004A434FF0E0235A6100229A611A461269D2
:104C600042F001021A6100BF4FF0E022106900F02B
:104C700001021AB100F48032002AF5D04FF0E02290
:104C8000126922F001024FF0E0231A6100229A61BA
:104C9000704700000800002000127A00DC000020AD
:104CA000DE00002030BF704772B6704762B67047B2
:104CB000014600BF704700BF494A128802F0400217
:104CC000002AF9D0C2B2464B1B1D1A80704710B59E
:104CD00086B00446012144F2040000F033FC4FF496
:104CE0000070ADF8140003208DF8160018208DF820
:104CF000170005A93B4800F069F94FF48060ADF852
:104D0000140004208DF8170005A9364800F05EF95C
:104D100025208DF8000003208DF801008DF8020099
:104D200001208DF80300684600F087F80194002008
:104D3000ADF80800ADF80A00ADF80C00ADF81000B1
:104D40000C20ADF80E0001A9254800F028FE012234
:104D500040F22551224800F0BAFE0121204800F01F
:104D6000AAFE06B010BD10B540F225511C4800F057
:104D700093FF10B31A4800F00FFFC4B21A4800881E
:104D800000F40040C8B91848008800F4804060B1C1
:104D90000A2C03D000201449088020E01248008823
:104DA00040F400401049088019E00D2C06D10E484F
:104DB000008840F480400C49088010E00A480088D0
:104DC000C0F30D0009490C5407480088401C0649EF
:104DD000088008460088C72801DD0020088010BD33
:104DE0000038014000080140E4000020701C002051
:104DF0000948804709480047FEE7FEE7FEE7FEE76F
:104E0000FEE7FEE7FEE7FEE7FEE7FEE704480549AA
:104E1000054A064B704700001707000831010008DB
:104E2000C8C70020C8CD0020C8C90020C8C90020BC
:104E300031490143314A1160704770B500210023A8
:104E40000F22C47804B32D4C246804F4E064C4F544
:104E5000E064210AC1F10403CA40447804FA03F172
:104E60008478144021430901254C0678A155047823
:104E700004F01F050124AC4005786D11AD0005F16B
:104E8000E025C5F8004109E0047804F01F0501247D
:104E9000AC401C4D0678761145F8264070BD1A4A84
:104EA0000A400243154B1B1F1A60704739B1134A61
:104EB000121D12680243114B1B1D1A6006E00F4AB7
:104EC000121D126882430D4B1B1D1A607047042887
:104ED00008D14FF0E021096941F004014FF0E022D0
:104EE000116107E04FF0E021096921F004014FF062
:104EF000E0221161704700000000FA050CED00E0AF
:104F000000E400E080E100E080FFFF1F10B50446F0
:104F1000CC48844208D10121042000F02DFB00215F
:104F2000042000F029FB46E0C748844208D1012153
:104F3000082000F021FB0021082000F01DFB3AE0D2
:104F4000C248844208D10121102000F015FB002145
:104F5000102000F011FB2EE0BD48844208D1012151
:104F6000202000F009FB0021202000F005FB22E0BA
:104F7000B848844208D10121402000F0FDFA002108
:104F8000402000F0F9FA16E0B348844208D101212C
:104F9000802000F0F1FA0021802000F0EDFA0AE014
:104FA000AE48844207D10121801500F0E5FA0021C6
:104FB000A01500F0E1FA10BD10B50121084600F07F
:104FC000DBFA0021012000F0D7FA10BD2DE9F041F5
:104FD000024600250026002000230024002791F827
:104FE00003C00CF00F0591F803C00CF0100CBCF1DD
:104FF000000F03D091F802C04CEA050591F800C0FB
:10500000BCF1000F31D0146800202BE04FF0010CF0
:105010000CFA00F3B1F800C00CEA03069E4220D15E
:1050200083004FF00F0C0CFA03F7BC4305FA03FCA6
:105030004CEA040491F803C0BCF1280F06D14FF0EC
:10504000010C0CFA00FCC2F814C00AE091F803C08D
:10505000BCF1480F05D14FF0010C0CFA00FCC2F86E
:1050600010C0401C0828D1D31460B1F800C0BCF1B6
:10507000FF0F34DD546800202EE000F1080C4FF0E3
:10508000010808FA0CF3B1F800C00CEA03069E42CE
:1050900021D183004FF00F0C0CFA03F7BC4305FA43
:1050A00003FC4CEA040491F803C0BCF1280F05D1BD
:1050B00000F1080C08FA0CF8C2F8148091F803C04B
:1050C000BCF1480F07D100F1080C4FF0010808FAB5
:1050D0000CF8C2F81080401C0828CED35460BDE8FC
:1050E000F0814FF6FF710180022181700421C170AF
:1050F00070470246002093680B400BB1012000E08E
:10510000002070470146886880B270470246002040
:10511000D3680B400BB1012000E00020704701462E
:10512000C86880B2704701617047416170470AB139
:10513000016100E041617047C16070474FF4803207
:105140000A43826181618261826982697047024695
:105150000020434B18684FF68073184040EA021055
:1051600008433F4B186070473E49C8617047F0B52F
:105170000A46002300240021002500F00046B6F175
:10518000004F02D1364EF16901E0354E7168C0F32F
:10519000034583B200F44016B6F5401F08D121F054
:1051A00070612F4E766826F070662D4F7E6012E09B
:1051B00000F48016B6F5801F06D1032606FA05F422
:1051C000A14341F0706106E0460D360103FA06F690
:1051D000B14341F0706122B1460D360103FA06F683
:1051E000314300F00046B6F1004F02D11C4EF16190
:1051F00001E01B4E7160F0BD30B500228B071C0F23
:105200000F2303FA04F2164B08338C1053F82430A2
:105210009343134C08348D1044F8253023468C10EA
:1052200053F824308C07240F00FA04F423430C4C69
:1052300008348D1044F8253030BD0A49DC3108604F
:105240007047000000080140000C014000100140C0
:105250000014014000180140001C014000200140E2
:105260000000014000002042DF48006840F00100DB
:10527000DD49086008464068DC490840DA49486072
:1052800008460068DA490840D749086008460068BF
:1052900020F4802008600846406820F4FE00486042
:1052A0004FF41F0088607047CF49096821F48031AE
:1052B000CD4A11601146096821F480211160B0F5D2
:1052C000803F03D0B0F5802F0ED106E0C6490968B3
:1052D00041F48031C44A116007E0C349096841F4D0
:1052E000A021C14A116000E000BF00BF704710B5A7
:1052F00001460022002300204A11012A02D1BA4CA3
:10530000236806E0022A02D1B74C236A01E0B64CBA
:10531000636A01F01F02012494401C400CB101207B
:1053200000E0002010BD38B50020009000240025CA
:1053300000BF3120FFF7DBFF05460098401C0090BE
:105340000098B0F5A06F01D0002DF2D03120FFF70A
:10535000CEFF08B1012400E00024204638BD0146FC
:105360000020A14A106820F0F80040EAC100106057
:105370007047A04908607047024600209A4B586861
:1053800020F47C1042EA01031843974B58607047A1
:1053900098490866704701460020934A506820F0FB
:1053A00003000843506070478F48406800F00C00CD
:1053B0007047014600208C4A506820F0F0000843F6
:1053C0005060704701460020874A506820F4E06032
:1053D00008435060704701460020834A506820F41B
:1053E000605040EAC1005060704729B17E4A527A4D
:1053F00002437D4B5A7204E07B4A527A82437A4BD5
:105400005A7270477B49D8310860704701460020C6
:10541000754A506820F440400843506070470021AE
:10542000714A20321170704A82F82010012802D08F
:1054300004280AD104E001216B4A2032117005E0F2
:105440000521694A2032117000E000BF00BF70479B
:105450006949086070476449096A0143624A1162F8
:105460007047654944390860704730B50021002213
:10547000002400235C4D6D6805F00C0121B1042966
:1054800005D0082923D105E05C4D056022E05B4D85
:1054900005601FE0544D6D6805F47012524D6D6843
:1054A00005F48034022505EB92421CB9544D554356
:1054B00005600BE04C4D6D6805F400351DB1504D95
:1054C0005543056002E04D4D5543056002E04B4DEC
:1054D000056000BF00BF444D6D6805F0F00109098B
:1054E000484D6B5C0568DD4045603F4D6D6805F4D7
:1054F000E061090A434D6B5C4568DD4085603A4DCB
:105500006D6805F46051C90A3E4D6B5C4568DD402D
:10551000C560354D6D6805F44041890B3A4D6B5CB3
:10552000C568B5FBF3F5056130BD29B12E4A526956
:1055300002432D4B5A6104E02B4A526982432A4BA5
:105540005A61704729B1284A92690243264B9A61F1
:1055500004E0254A92698243234B9A61704729B13E
:10556000214AD2690243204BDA6104E01E4AD26923
:1055700082431D4BDA61704729B11B4AD26802434E
:10558000194BDA6004E0184AD2688243164BDA609D
:10559000704729B1144A12690243134B1A6104E09F
:1055A000114A12698243104B1A61704712494039FF
:1055B000086070470F49C86470470B49C87170474D
:1055C0000948406A40F080700749486270470146C8
:1055D0000020054A92680A400AB1012000E000203C
:1055E0007047014988727047001002400000FFF8C0
:1055F000FFFFF6FE000042428004424200127A00A1
:1056000000093D00E6000020F600002010B5044629
:10561000BE48844208D101218014FFF7ADFF00216C
:10562000A014FFF7A9FF16E0B948844208D1012170
:105630000014FFF7AEFF00212014FFF7AAFF0AE0D5
:10564000B448844207D10121C013FFF7A2FF002113
:10565000E013FFF79EFF10BD10B50022028802F490
:1056600041520B884C8823438C882343CC882343A6
:105670000C8923434C8923438C892343CC892343BE
:105680001A430280838B4FF2FF74234083830B8A7B
:10569000038210BD2DE9F04F85B005460C464FF052
:1056A000000902274FF000084FF0010B0026B24618
:1056B000A88B4FF240010840A88302202884B5F847
:1056C0001C90A068022801D100BF38E0A08810B962
:1056D0004FF0010B01E04FF0020B8D48854200D1E5
:1056E00000E000BF6846FFF7C0FEDDF800A0E088DC
:1056F000B0F5007F0AD14FEA1A2000EB800040008D
:10570000A168B0FBF1F0401D86B20BE04FEA4B10F0
:10571000BAFBF0F000EB80004000A168B0FBF1F0B4
:10572000401D86B20A20B6FBF0F606F00108A6EB93
:105730000800C0F34F074FF6FF7000EA0828022F59
:1057400001DBFF2F02DD02274FF00008E08840EA6E
:10575000080038432884A088A18908436188084349
:105760002188084340F4006040EA0909A5F81C902C
:1057700005B0BDE8F08F0021018041808180C180AB
:10578000018141818181C18107210182704700210E
:10579000018041808180C18002218160002181815E
:1057A000704721B1028842F04002028004E0028882
:1057B0004FF6BF731A400280704721B1828B42F4CA
:1057C0008062828304E0828B4FF6FF331A4082832B
:1057D000704730B5002400230C110125A540ABB261
:1057E0001AB185881D43858002E085889D438580A8
:1057F00030BD1AB183880B43838002E083888B43DA
:1058000083807047818170470146888970474FF6D1
:10581000FF62914204D0028842F48072028004E068
:1058200002884FF6FF631A400280704721B18288D8
:1058300042F00402828004E082884FF6FB731A4033
:105840008280704702884FF2FF731A4002800288FC
:105850000A4302807047018841F4805101807047FB
:1058600021B1028842F40052028004E002884DF621
:10587000FF731A400280704702460020012901D0C0
:10588000108B00E0908A70470146088A7047B1F596
:10589000804F04D1028842F48042028004E00288F2
:1058A0004BF6FF731A4002807047024600201389AE
:1058B0000B400BB1012000E000207047CA43028179
:1058C0007047F0B50246002000240023002501F0B7
:1058D0000F070126BE40B4B20B1101269E40B3B2A1
:1058E000968806EA03051689264016B10DB10120F7
:1058F00000E00020F0BD10B5002201F00F040123EC
:10590000A3409AB2D343038110BD00000030014090
:1059100000380040003C004010B50446FB4884427B
:1059200009D101218803FFF727FE00214FF48040B1
:10593000FFF722FE32E0F648844209D101214804F3
:10594000FFF727FE00214FF40030FFF722FE25E08D
:10595000F048844209D101218804FFF71AFE002192
:105960004FF48020FFF715FE18E0EB48844209D180
:105970000121C804FFF70DFE00214FF40020FFF7BE
:1059800008FE0BE0E548844208D101210805FFF735
:1059900000FE00214FF48010FFF7FBFD10BD2DE944
:1059A000F04786B005460E460024A24600BFA14639
:1059B0000027B08900B100BF2F462C8A4CF6FF703B
:1059C0000440F08804432C82AC894EF6F310044066
:1059D000B08831890843718908430443AC81AC8A9B
:1059E0004FF6FF400440B0890443AC8201A8FFF7A2
:1059F0003CFDC648874202D1DDF810A001E0DDF889
:105A00000CA0A88900F4004040B10AEBCA0000EBEA
:105A10000A1031684900B0FBF1F807E00AEBCA0050
:105A200000EB0A1031688900B0FBF1F86420B8FB84
:105A3000F0F004012009642101FB1089A88900F419
:105A4000004040B1322000EBC900B0FBF1F000F0A3
:105A50000700044308E0322000EB09106421B0FB8A
:105A6000F1F000F00F0004432C8106B0BDE8F08790
:105A70004FF41651016000218180C18001810C2109
:105A8000418100218181704710B502460020108AB3
:105A90004FF2FF0318400B884C8823438C88234324
:105AA000CC8823431843108210BD0021018041801F
:105AB0008180C180704721B1828942F40052828185
:105AC00004E082894DF6FF731A4082817047F0B579
:105AD0000346002400260025002040F66A17B9423C
