:020000040800F2
:10000000A009002045210008190500081B0500086B
:100010001F05000823050008270500080000000050
:100020000000000000000000000000002B05000898
:100030002D050008000000002F050008310500080C
:100040005F2100085F2100085F2100085F21000890
:100050005F2100085F2100085F2100085F21000880
:100060005F2100085F2100085F2100085F21000870
:100070005F2100085F2100085F2100085F21000860
:100080005F2100085F2100085F2100085F21000850
:100090005F2100085F2100085F2100085F21000840
:1000A0005F2100085F2100085F2100085F21000830
:1000B00033050008431E00085F2100085F21000887
:1000C0005F2100085F2100085F2100085F21000810
:1000D0005F210008BB2000085F210008611E0008A6
:1000E0005F2100085F2100085F2100085F210008F0
:1000F0005F2100085F2100085F2100085F210008E0
:100100005F2100085F2100085F2100085F210008CF
:100110005F2100085F2100085F2100085F210008BF
:100120005F2100085F2100085F2100085F210008AF
:1001300000F002F800F04BF80AA090E8000C8244AE
:100140008344AAF10107DA4501D100F040F8AFF28B
:10015000090EBAE80F0013F0010F18BFFB1A43F0A5
:1001600001031847B47E0000D47E0000103A24BF7B
:1001700078C878C1FAD8520724BF30C830C144BF0C
:1001800004680C607047000000230024002500264E
:10019000103A28BF78C1FBD8520728BF30C148BFEA
:1001A0000B607047642906F0B584782906F0EE8468
:1001B000002070471FB506F009FF04000020002151
:1001C00006F09CFF401C60601FBD10B510BD06F01E
:1001D00021FF1146FFF7EEFF00F019F806F03FFF90
:1001E00003B4FFF7F2FF03BC01F00CFF10B541F6BA
:1001F0001F41092001F0F8FD4FF4165001F041FEB7
:1002000014218E4806F020FE05F07AFB10BD92B056
:100210004FF0000B8AA003C8CDE90D018AA003C8E6
:10022000CDE90B018AA103C9CDE909018AA103C95E
:10023000CDE907018AA103C9CDE905018AA103C956
:10024000CDE903018AA103C9CDE9010101F070FEE6
:100250004FF4A06001F096FF4FF4165001F0E1FE5C
:10026000FFF7C4FF00F0B0FA00F0D4FA01F0E5F8AF
:1002700001F0C0F901F085FA01F030FC01F0AAFBB1
:1002800000F0A0FB00F07BFB01F067FC01F086FDB5
:100290000DA801F069FD4FF4FA7001F086FE76A01A
:1002A00006F004FC7CA006F001FCC5E00A21012058
:1002B00001F0E9FB0F900F9807F022FD009007F086
:1002C00093FB07464FF066327B4B07F0A5F90546D6
:1002D00006F02AFF81467949484607F025FD054684
:1002E00007F0D2FC00F0FF0A10A911A801F01DFAD6
:1002F00001F007FC04469DF84400504948609DF811
:10030000400088600846C460C0F810A005F050FDA9
:1003100000F004FE01216A4802F095F810B90BA81C
:1003200001F022FD0221664802F08DF828B9002074
:1003300064490860644801F017FD0421604802F038
:1003400082F828B901205F490860604801F00CFD7F
:1003500008215B4802F077F850B900F004FB5C48D4
:1003600001F002FD4FF47A7001F01FFE00F001FB76
:100370001021534802F067F810B909A801F0F4FC05
:1003800020214F4802F05FF828B900205149086049
:10039000514801F0E9FC4021494802F054F828B9DD
:1003A00001204C4908604D4801F0DEFC80214448A2
:1003B00002F049F810B907A801F0D6FC012148481D
:1003C00002F041F810B905A801F0CEFC0221444822
:1003D00002F039F810B903A801F0C6FC0221414827
:1003E00002F031F810B901A801F0BEFC01213D482E
:1003F00002F029F838B94FF4FA715A2001F032FCB2
:10040000394801F0B1FC002000F03CFA8346BBF112
:10041000020F05D135A006F049FB022005F087FA4E
:10042000BBF1030F08D136A006F040FB002005F019
:100430007EFA00203749087038E70000D800002015
:10044000AA07020007BA0000AA07020002B50000CE
:10045000AA07020006B90000AA07020010C30000A4
:10046000AA07020011C40000AA0702000EC1000082
:10047000AA07020008BB00002D2D2D2D2D2D2D2D9E
:10048000494F542D44485431312D2D2D2D2D2D2DD6
:100490002D2D2D0D0A0000004B4559313A4169724E
:1004A0004C696E6B3F3F3F3F09204B45595F5550AC
:1004B0003A3F3F0D0A0D0A0066664A3F00002041A0
:1004C0000014014094812142B6000020B0000020B9
:1004D0004800002094012342BC000020C2000020FC
:1004E00000180140000C0140A40000205749464973
:1004F0003F3F4169724C696E6B3F3F3F3F0D0A00C1
:10050000574946493F3F2C3F3F3F3F3F3F3F0D0A42
:100510000000000000000020704700BFFEE700BFA1
:10052000FEE700BFFEE700BFFEE770477047704779
:10053000704710B50121880703F00FFB002844D055
:100540000121880703F01AFB20480078401C1F494E
:100550000870084600780A2811DB002008701C4843
:100560000078401C1A4908701A480078401C194944
:10057000087008460078C82801DB0020087016487B
:100580000068401C1449086008460068322801D3FE
:100590000020086011480078401C10490870084687
:1005A00000780F490978884204DC01210D4801F0E8
:1005B00064FF03E001210B4801F061FF0748007868
:1005C000C82802DB00200549087010BD0500002086
:1005D0000400002006000020080000200700002082
:1005E00021000020000801400CB50020019000907F
:1005F0006C48006840F480306A49086000BF694870
:10060000006800F4003000900198401C01900098B0
:1006100018B90198B0F5A06FF1D16248006800F4F4
:10062000003010B10120009001E0002000900098FF
:10063000012843D15C48006840F010005A49086026
:100640000846006820F0030008600846006840F093
:1006500002000860534840685249486008464068B4
:1006600048600846406840F480604860084640683A
:1006700020F47C1048600846406840F4E810486068
:100680000846006840F08070086000BF4548006878
:1006900000F000700028F9D04248406820F00300C4
:1006A000404948600846406840F00200486000BF8A
:1006B0003C48406800F00C000828F9D10CBD10B58A
:1006C000FFF792FF10BD10B53648006840F00100FA
:1006D0003449086008464068344908403149486058
:1006E00008460068324908402E49086008460068FC
:1006F00020F4802008600846406820F4FE0048602E
:100700004FF41F008860FFF7DAFF4FF000602949BF
:10071000086010BD10B5002100200022214B5B684D
:1007200003F00C0121B1042906D0082928D107E0E3
:10073000214B224C236027E01F4B204C236023E0F9
:10074000184B5B6803F47010164B5B6803F480323F
:10075000022303EB904022B9194B4343174C23600B
:100760000DE0104B5B6803F4003323B1144B43439B
:10077000124C236003E0104B4343104C236003E012
:100780000D4B0E4C236000BF00BF064B5B68C3F3EC
:1007900003130C4CE15C094B1B68CB40074C2360F6
:1007A00010BD000000100240002002400000FFF8D1
:1007B000FFFFF6FE08ED00E000127A000C000020BA
:1007C00000093D001000002008B50121482002F07A
:1007D00063F82020ADF8000010208DF803000320FE
:1007E0008DF802006946094801F09AFD202107486A
:1007F00001F043FE2020ADF800006946044801F0F6
:100800008FFD2021024801F038FE08BD000C014098
:100810000018014008B501216C2002F03DF81B20B2
:10082000ADF8000048208DF8030069463B4801F010
:1008300077FD0320ADF8000048208DF803006946DD
:10084000374801F06DFD0F20ADF8000048208DF80D
:1008500003006946334801F063FDF020ADF8000065
:1008600048208DF8030069462E4801F059FD01200B
:10087000ADF8000028208DF8030069462A4801F0F1
:100880004FFD08BD10B5044614B10120274908707A
:100890002648007858B31021204801F0D4FD50B10B
:1008A00008211E4801F0CFFD28B101211E4801F0AA
:1008B000CAFD01281BD10A2001F077FB00201B494B
:1008C00008701021154801F0BEFD08B9012010BDC7
:1008D0000821124801F0B7FD08B90220F7E701210D
:1008E000114801F0B0FD012815D10320EFE71021D8
:1008F0000A4801F0A8FD01280DD10821074801F0A0
:10090000A2FD012807D10121074801F09CFD10B983
:100910000120064908700020D9E7000000180140B6
:10092000000C01400014014000080140200000209C
:1009300010B50F20364908704FF4967001F035FB62
:1009400010BD10B50720324908704FF4967001F0C1
:100950002CFB10BD10B517202D4908704FF4967070
:1009600001F023FB10BD10B5FFF7E2FFFFF7F2FF28
:1009700010BD10B5FFF7DCFFFFF7E3FF10BD08B5B2
:100980000120ADF8000010208DF8030003208DF841
:10099000020069461F4801F0C3FC01211D4801F017
:1009A0006CFD08BD08B51C208DF8000000208DF8F6
:1009B000010001208DF802008DF80300684601F067
:1009C000E6FB08BD0EB50121084601F072FF632069
:1009D000ADF804004720ADF800000020ADF8060097
:1009E000ADF8020069464FF0804002F091FA012113
:1009F000880703F0C3F801221146900702F0FFFDBB
:100A00000121880702F0E0FDFFF7CCFF0EBD0000DA
:100A10002100002000080140014600BFFE48008878
:100A200000F002000028F9D0FB48001D018000BF43
:100A3000F948008800F001000028F9D0F648001DB0
:100A40000088C0B2704710B502460B460120F3493A
:100A500008607E2000EA42042046FFF7DDFF1846CA
:100A6000FFF7DAFF0120ED49091F086010BD10B53E
:100A7000024600240120E94908607E2000EA420085
:100A800040F080031846FFF7C7FF0020FFF7C4FFC0
:100A900004460120E149091F0860204610BD70B5D9
:100AA00005460C4600262846FFF7E1FF064646EAC3
:100AB00004012846FFF7C7FF70BD70B505460C4618
:100AC00000262846FFF7D3FF064626EA04012846FB
:100AD000FFF7B9FF70BD2DE9FE4F064688469146E7
:100AE0009A46DDF830B0022002900020019000907C
:100AF0000C2E06D00E2E09D112200190102000904D
:100B000005E0772001903020009000E000BF00BF9A
:100B1000019840F080010220FFF795FF802104201A
:100B2000FFF7CBFF00210120FFF78DFF80210A2076
:100B3000FFF7B5FF002506E018F805100920FFF7BC
:100B400082FF681C85B24D45F6DB31460120FFF778
:100B50007AFF0C2E03D180210D20FFF7A0FF4FF468
:100B6000FA6500BF0420FFF782FF0446681E85B2C5
:100B700035B104F0010018B9009820400028F1D0E8
:100B800080210D20FFF799FF002D38D00620FFF7B8
:100B90006EFF00F01B0078BB0020029001982040FF
:100BA00000F0010008B1012002900C2E27D10A208C
:100BB000FFF75DFF04460C20FFF759FF00F0070721
:100BC0002FB1601E07EBC0008BF8000003E0E006C9
:100BD000000E8BF8000004B90124122C00DD122451
:100BE000002506E00920FFF742FF0AF80500681C0F
:100BF00085B2A542F6DB02E0FFE7022002908021E9
:100C00000C20FFF74CFF00210120FFF71CFF02988A
:100C1000BDE8FE8F2DE9F0410746884615460421C0
:100C20000520FFF74AFF00210120FFF70CFF80217C
:100C30000A20FFF734FF002405E0395D0920FFF7A3
:100C400002FF601CC4B24445F7DB03210120FFF71B
:100C5000FAFEFF2400BF0520FFF709FF0646601ECD
:100C6000C4B21CB106F004000028F4D02220FFF723
:100C7000FEFE28702120FFF7FAFE6870BDE8F081C3
:100C8000F0B587B005460E4630208DF804008DF88B
:100C900005500DF10602022101A8FFF7BBFF06A8CF
:100CA00001AB042201A900900C20FFF714FF0746B6
:100CB0006FB99DF81800902809D1002404E001A81C
:100CC000005D3055601CC4B2102CF8DB00E0022738
:100CD000384607B0F0BD2DE9F04187B004460D4617
:100CE00016461F468DF804408DF805503068CDF843
:100CF0000600B088ADF80A003868039006A801AB7A
:100D00000C2201A900900E20FFF7E5FE8046B8F105
:100D1000000F05D10820FFF7AAFE00F0080008B96F
:100D20004FF00208404607B0BDE8F08170B587B0CB
:100D3000054693208DF8040070208DF805000020F2
:100D40008DF80A0000240BE0295D01AAA01C1154B3
:100D50009DF80A00295D48408DF80A00601CC4B265
:100D6000042CF1DB0DF10B02072101A8FFF752FF64
:100D700008210846FFF7A1FE06A801AB092201A938
:100D800000900C20FFF7A7FE06462EB99DF818002C
:100D9000182801D1002600E00226304607B070BDB9
:100DA0002DE9FE4105460E46099C00204CE0115CF1
:100DB000CF1701EB17773F110DF810701DF81010C9
:100DC000092906DD1DF810103731C9B20DF81010D1
:100DD00005E01DF810103031C9B20DF81010115C8B
:100DE000CF1701EB17773F11A1EB0717FFB24FF0B9
:100DF000010C0CEB400C0DF80C70012101EB4001D3
:100E00001DF80110092911DD012101EB40011DF838
:100E100001103731C9B203E008380040141C01400A
:100E2000012707EB40070DF807100BE0012101EB4C
:100E300040011DF801103031C9B2012707EB40070E
:100E40000DF80710411CC8B20428B0DB00218DF852
:100E50000810BDE8FE81F0B587B0054600270821DF
:100E60000846FFF72AFE00210D20FFF7ECFD802148
:100E70000E20FFF722FE93208DF8040020208DF82D
:100E8000050006A801AB022201A900900C20FFF783
:100E900022FE064686B9002407E001A8005D285519
:100EA00001A8005D4740601CC4B2042CF5DB01A81A
:100EB000005DB84200D0022680210E20FFF7EFFD32
:100EC000304607B0F0BD70B587B005460C46082126
:100ED0000846FFF7F2FD07210D20FFF7B4FD0321BF
:100EE0001420FFF7DCFD8DF8045006A801AB0122A9
:100EF00001A900900C20FFF7EEFD064656B99DF8BB
:100F00001800102806D19DF8040020709DF80500F7
:100F1000607000E00226304607B070BD08B5F849A1
:100F20005220FFF7D0FFF74908700846007830B923
:100F300002200870F448FFF78EFFF2490870F1486C
:100F4000007800287ED10220EE4908704FF6FF702D
:100F50001F23ED4AC82100900020FFF721FFEA4837
:100F60000078EA490978884222D1E7484078E74981
:100F7000497888421CD1E4488078E44989788842DD
:100F800016D1E148C078E149C978884210D10120E2
:100F9000DF490870DFA005F089FDFFF7E4FCE348B6
:100FA00000F0E2FE4FF47A7000F0FFFFFFF7E1FC83
:100FB000D5480078DE490978884222D1D248407865
:100FC000DB49497888421CD1CF488078D849897854
:100FD000884216D1CC48C078D549C978884210D10A
:100FE0000120D4490870D4A005F060FDFFF7BBFCD8
:100FF000CE4800F0B9FE4FF47A7000F0D6FFFFF74C
:10100000B8FCC1480078D2490978884224D1BE484A
:101010004078CF49497888421ED1BB488078CC4976
:101020008978884218D1B848C078C949C9788842B7
:1010300012D10120C7490870C7A005F037FDFFF79E
:1010400092FC00E05FE0B94800F08EFE4FF47A7049
:1010500000F0ABFFFFF78DFCAB480078C44909787E
:10106000884222D1A8484078C149497888421CD199
:10107000A5488078BE498978884216D1A248C078B0
:10108000BB49C978884210D10120BA490870BAA07A
:1010900005F00CFDFFF767FCA44800F065FE4FF477
:1010A0007A7000F082FFFFF764FC97480078B84937
:1010B0000978884222D194484078B54949788842D5
:1010C0001CD191488078B2498978884216D18E48DF
:1010D000C078AF49C978884210D10120AD49087065
:1010E000ADA005F0E3FCFFF73EFC904800F03CFEAD
:1010F0004FF47A7000F059FFFFF73BFC8248FFF78E
:1011000015FE804908707F48007850B902207D495B
:1011100008707D4BA64A09216020FFF7DCFD794964
:1011200008707848007848B9022076490870A149CB
:10113000A1480078FFF7A4FD724908707148007853
:1011400028B902206F490870642000F02EFF08BD06
:10115000002103E000BF00BF00BF491C8142F9D35A
:10116000704770B50546002405E0601CC4B2C82C69
:1011700001DD002070BD0221904802F052FE0028DF
:10118000F3D029468D4802F0F9FD002405E0601CEB
:10119000C4B2C82C01DD0020ECE70121874802F031
:1011A00040FE0028F3D0854802F0EAFDC0B2E1E736
:1011B00010B50446814800884FF6C77108407F4942
:1011C0000880084600882043088001217B4802F0FF
:1011D000A4FD10BD00B587B00121882001F05CFBA3
:1011E0000121880301F065FB0320ADF818001020F1
:1011F0008DF81B0003208DF81A0006A9704801F035
:101200008FF802216E4801F03AF94FF46040ADF8D2
:10121000180018208DF81B0003208DF81A0006A96D
:10122000684801F07DF84FF46041664801F025F907
:101230000020ADF804004FF48270ADF806000020E5
:10124000ADF80800ADF80A00ADF80C004FF40070DE
:10125000ADF80E003820ADF810000020ADF81200F7
:101260000720ADF8140001A9544802F0B1FC012197
:10127000524802F052FD07B000BD10B51420FFF730
:10128000F6FB044604F0030018B903211420FFF70D
:1012900006FC10BD10B50446412C26D10821084695
:1012A000FFF70BFC3D211120FFF7CDFB8621172016
:1012B000FFF7C9FB7F212620FFF7C5FB1E212D204C
:1012C000FFF7C1FB00212C20FFF7BDFB8D212A2059
:1012D000FFF7B9FB3E212B20FFF7B5FB4FF47A70E7
:1012E000FFF736FFFFF7C9FF01E0012010BD002026
:1012F000FCE700B503211420FFF7DFFB00BD000071
:10130000220000205E000020240000202E0000208B
:10131000280000200D0A5468652055736572206905
:10132000733A636172645F300D0A00004800002068
:1013300032000020290000200D0A546865205573F2
:1013400065722069733A636172645F310D0A00004F
:10135000360000202A0000200D0A546865205573CD
:1013600065722069733A636172645F320D0A00002E
:101370003A0000202B0000200D0A546865205573A8
:1013800065722069733A636172645F330D0A00000D
:101390003E0000202C0000200D0A54686520557383
:1013A00065722069733A636172645F340D0A0000EC
:1013B00042000020EC0000205F00002000380040C8
:1013C000001C0140000C014000B502208849086063
:1013D0000A20FFF7BDFE02208549091D08600A208A
:1013E000FFF7B6FE0220824908600A20FFF7B0FE30
:1013F0000F210120FFF727FB0F210120FFF723FB1F
:101400000A20FFF7A5FE3D211120FFF71CFB1E213E
:101410002D20FFF718FB00212C20FFF714FB8D2156
:101420002A20FFF710FB3E212B20FFF70CFB402169
:101430001520FFF708FB002000BD10B5FFF7CAFE1E
:10144000FFF7C2FFFFF755FF022000F0AEFDFFF7E8
:1014500014FF4120FFF71EFF10BD10B5FFF7B4FFCA
:10146000FFF747FF022000F0A0FDFFF706FF10BDC9
:10147000F0B587B006460F46A0208DF804008DF821
:1014800005600DF10602022101A8FFF7C3FB06A8C3
:1014900001AB042201A900900C20FFF71CFB0546BC
:1014A0004DB99DF81800042805D19DF8040000F0FE
:1014B0000F000A2800D0022515BB002404E0385D87
:1014C00001A90855601CC4B2102CF8DB05AA102134
:1014D00001A8FFF79FFB06A801AB122201A900900B
:1014E0000C20FFF7F8FA05464DB99DF818000428BE
:1014F00005D19DF8040000F00F000A2800D0022555
:10150000284607B0F0BD10B587B050208DF8040014
:1015100000208DF805000DF10602022101A8FFF759
:1015200079FB06A801AB042201A900900C20FFF76B
:10153000D2FA0446002007B010BD10B502460120C3
:10154000002302E050435C1CE3B28B42FADB10BD87
:101550002DE9F04306460F4690469946022505249C
:1015600000BF43463A4631466020FFF7B4FB0546CC
:10157000601EC4B20DB1002CF3DC0225052400BFAF
:1015800049463046FFF77CFB0546601EC4B20DB1EC
:10159000002CF5DC2846BDE8F0832DE9F043064633
:1015A0000F46904699460225052400BF43463A4619
:1015B00031466020FFF78FFB0546601EC4B20DB1B7
:1015C000002CF3DC0225052400BF49463046FFF716
:1015D0004FFF0546601EC4B20DB1002CF5DC284655
:1015E000BDE8F08330B5DDE9034530BD704700004C
:1015F000101C014008B50121082001F04DF94FF4FD
:101600008070ADF8000010208DF8030003208DF8E5
:1016100002006946044800F083FE4FF480710248DE
:1016200000F02DFF08BD0000000C014010B563481C
:10163000406820F47040614948600846406840F4C2
:101640004050486000205E490860142000F0ADFC66
:1016500001205C49C1F8AC011E2000F082FC10BDE5
:1016600010B500245548406820F470405349486044
:101670000846406840F40040486004E0601CC4B282
:10168000012000F06EFC4E488038006808B1642CE0
:10169000F4DB642C01DB012010BD002404E0601C9D
:1016A000C4B2012000F05DFC45488038006808B9EC
:1016B000642CF4DB642C01DB0120EDE70020EBE778
:1016C00010B5002404E0601CC4B2012000F049FC05
:1016D0003B488038006808B1642CF4DB002404E047
:1016E000601CC4B2012000F03CFC35488038006822
:1016F00008B9642CF4DB282000F033FC3048803833
:10170000006808B1012010BD0020FCE770B500247E
:10171000002506E06006040EFFF7D2FF0443681CB4
:10172000C5B2082DF6DB204670BD7CB505460E46D9
:10173000FFF77CFFFFF794FFF8B9002405E0FFF7FF
:10174000E5FF0DF80400601CC4B2052CF7DB9DF822
:1017500000009DF8011008449DF8021008449DF80F
:10176000031008449DF80410884208D19DF8000039
:1017700030709DF80200287001E001207CBD00203F
:10178000FCE708B50121080201F086F84FF400607B
:10179000ADF8000010208DF8030003208DF8020042
:1017A0006946064800F0BCFD4FF40061034800F0B4
:1017B00064FEFFF73BFFFFF753FF08BD0020014029
:1017C000AC0124420000244200B585B001214FF451
:1017D000017001F061F84FF4004000F0C1FFB5481E
:1017E00002F056FB002000908DF804008DF80500F3
:1017F0004FF4602002900020039001208DF810002B
:101800006946AC4802F06BFB012002F025FD012186
:10181000A84802F090FBA74802F0AFFB00BFA54824
:1018200002F0B0FB0028FAD1A24802F0B5FB00BFDD
:10183000A04802F0B6FB0028FAD105B000BD10B5F3
:1018400004460723012221469A4802F0E0FB0121C9
:10185000984802F0B0FB00BF0221964802F01CFD40
:101860000028F9D0934802F039FC10BD70B500246F
:10187000002509E01020FFF7E2FF204484B2052094
:1018800000F093FB681CC5B20A2DF3DB0A2094FB21
:10189000F0F080B270BD2DE9F04107460C460025FE
:1018A000002608E03846FFF7CAFF0544052000F08F
:1018B0007CFB701CC6B2A642F4DBB5FBF4F080B230
:1018C000BDE8F0812DE9F05F14211020FFF7E3FF60
:1018D0008346584606F014FA804606F085F8064618
:1018E0004FF06632744B05F097FE04460D462246D3
:1018F0002B467248724905F08DFF8046714A724B43
:1019000005F0ECFC06460022704B05F03FFC044657
:101910000D4600226E4B2046294605F07DFE064608
:1019200005F034FE0FFA80FA5046BDE8F09F00B58E
:1019300085B00121C80300F0AFFF0121C80300F00A
:10194000C5FF00214FF4004000F0C0FF614802F0E5
:101950009FFA002000908DF804008DF805004FF4E8
:10196000602002900020039001208DF8100069464D
:10197000584802F0B4FA0121564802F0DCFA554802
:1019800002F0FBFA00BF534802F0FCFA0028FAD13B
:10199000504802F001FB00BF4E4802F002FB002855
:1019A000FAD105B000BD10B5044607230122214637
:1019B000484802F02CFB0121464802F0FCFA00BF27
:1019C0000221444802F068FC0028F9D0414802F0A6
:1019D00085FB10BD00B587B001214FF4017000F008
:1019E0005BFF4FF4004000F0BBFE0220ADF80400A6
:1019F00000208DF8070001A9374800F091FC2D4820
:101A000002F046FA002002908DF80C008DF80D00CF
:101A10004FF4602004900020059001208DF81800FC
:101A200002A9244802F05BFA0121224802F083FA5D
:101A3000204802F0A2FA00BF1E4802F0A3FA0028D4
:101A4000FAD11C4802F0A8FA00BF1A4802F0A9FA1D
:101A50000028FAD107B000BD10B5044607230122C3
:101A60002146144802F0D3FA0121124802F0A3FAE9
:101A700000BF02210F4802F00FFC0028F9D00D48EA
:101A800002F02CFB10BD2DE9F04107460C46002565
:101A9000002608E03846FFF7DFFF0544052000F088
:101AA00084FA701CC6B2A642F4DBB5FBF4F080B237
:101AB000BDE8F0810024014066664A3FE17A14AE39
:101AC00047E1F63F22FDF675E09C713F000039408A
:101AD00000005940003C01400008014008B50121C8
:101AE000802000F0D9FE4FF48070ADF80000002097
:101AF0008DF803006946124800F012FCFFF717FF4B
:101B000008BD70B50024002508E00620FFF74BFF54
:101B10000444052000F049FA681CC5B20A2DF4DB24
:101B20000A20B4FBF0F4B4F57A6F01D94FF47A646B
:101B30002820B4FBF0F0C0F16400C0B270BD00001A
:101B4000001C0140002105E0002200E0521C702A28
:101B5000FCD3491C8142F7D3704708B501211020FE
:101B600000F09AFE4FF47070ADF8000010208DF870
:101B7000030003208DF802006946734800F0D0FB93
:101B80004FF47071704800F07AFC0121202000F0C1
:101B900083FE4FF47060ADF8000010208DF8030054
:101BA00003208DF802006946684800F0B9FB4FF445
:101BB0007061664800F063FC08BD70B505460024FE
:101BC0000AE0634830F814105F4800F05FFC2846D4
:101BD000FFF7B8FF601CC4B2042CF2DB70BD70B517
:101BE000054600240AE05B4830F81410574800F01E
:101BF0004DFC2846FFF7A6FF601CC4B2042CF2DBA4
:101C000070BD70B5054600240AE0534830F8141042
:101C10004D4800F03BFC2846FFF794FF601CC4B21F
:101C2000042CF2DB70BD70B5054600240AE04B4879
:101C300030F81410454800F029FC2846FFF782FFD1
:101C4000601CC4B2042CF2DB70BD10B54FF470718F
:101C50003D4800F014FC10BD10B500213B4800F0D9
:101C600015FC10BD2DE9F05F82460C46504605F08C
:101C7000BCFC07463A4A3B4B05F030FB054605F0F5
:101C800085FC83464FF0000904E02046FFF795FFEE
:101C900009F10109D945F8DBFFF7D7FFBDE8F09F4F
:101CA0002DE9F05F82460C46504605F09EFC074643
:101CB0002B4A2C4B05F012FB054605F067FC8346CA
:101CC0004FF0000904E02046FFF789FF09F1010900
:101CD000D945F8DBBDE8F09F2DE9F05F82460C4660
:101CE000504605F082FC07461D4A1E4B05F0F6FAE9
:101CF000054605F04BFC83464FF0000904E0204602
:101D0000FFF77FFF09F10109D945F8DBBDE8F09F36
:101D10002DE9F05F82460C46504605F066FC07460A
:101D20000F4A104B05F0DAFA054605F02FFC834602
:101D30004FF0000904E02046FFF775FF09F10109A3
:101D4000D945F8DBBDE8F09F0010014000140140C8
:101D50006000002070000020680000207800002053
:101D60008E3BA583F57FE63F70B5054600240FE066
:101D7000295D194800F030FFC82000F016F900BFB7
:101D80004021154800F096FF0128F9D1601C84B26B
:101D9000062CEDDB00201149088070BD1CB510A198
:101DA00003C9CDE90001002410E01DF804100A4821
:101DB00000F012FFC82000F0F8F800BF40210648EC
:101DC00000F078FF0128F9D1601C84B2062CECDB0E
:101DD0000020024908801CBD003801408800002016
:101DE000AA13011EDC0000007FB505460C46012148
:101DF000022000F05EFDADF80850ADF80440002070
:101E0000ADF80A00ADF8060001A9144801F080F809
:101E100001221146114801F0F2FB1D208DF800004F
:101E200000208DF8010003208DF8020001208DF8BC
:101E30000300684600F0ABF90121084801F0C4FB3B
:101E40007FBD10B50121054801F087FE28B10121B1
:101E5000024801F093FE02F01CFB10BD000400409C
:101E600008B540F22551304800F03AFF40B12E4805
:101E700000F0B6FEC0B200900121684602F0ECFB13
:101E800008BD10B586B004460121082000F004FD0D
:101E90000121880400F00DFD234800F061FD4FF49E
:101EA0008060ADF8100003208DF8120018208DF826
:101EB000130004A91D4800F033FA4FF40060ADF898
:101EC000100004208DF8130004A9184800F028FA27
:101ED00000940020ADF80400ADF80600ADF808004D
:101EE000ADF80C000C20ADF80A0069460E4800F071
:101EF0007AFD01210C4800F002FE012240F225513A
:101F0000094800F008FE27208DF8140002208DF803
:101F1000150003208DF8160001208DF8170005A884
:101F200000F035F906B010BD00480040000C01403B
:101F300010B56FF0040000F074F92E4800682E49C7
:101F4000B0FBF1F02D4908700846007800EB400125
:101F5000C1EBC0104FF6FF7101EAC00028490880AC
:101F600010BD0146254A12784A434FF0E0235A61DA
:101F700000229A611A46126942F001021A6100BFFA
:101F80004FF0E022106900F001021AB100F4803233
:101F9000002AF5D04FF0E022126922F001024FF042
:101FA000E0231A6100229A6170470146144A1288A0
:101FB0004A434FF0E0235A6100229A611A4612699F
:101FC00042F001021A6100BF4FF0E022106900F0F8
:101FD00001021AB100F48032002AF5D04FF0E0225D
:101FE000126922F001024FF0E0231A6100229A6187
:101FF000704700000C00002000127A0080000020D2
:1020000082000020014600BF704700BF494A128885
:1020100002F04002002AF9D0C2B2464B1B1D1A80C2
:10202000704710B586B00446012144F2040000F068
:1020300033FC4FF40070ADF8140003208DF8160047
:1020400018208DF8170005A93B4800F069F94FF4F6
:102050008060ADF8140004208DF8170005A93648FB
:1020600000F05EF925208DF8000003208DF80100B6
:102070008DF8020001208DF80300684600F087F813
:1020800001940020ADF80800ADF80A00ADF80C008E
:10209000ADF810000C20ADF80E0001A9254800F0A5
:1020A000A2FC012240F22551224800F034FD01211A
:1020B000204800F024FD06B010BD10B540F22551B7
:1020C0001C4800F00DFE10B31A4800F089FDC4B2A0
:1020D0001A48008800F40040C8B91848008800F485
:1020E000804060B10A2C03D000201449088020E011
:1020F0001248008840F400401049088019E00D2C77
:1021000006D10E48008840F480400C49088010E059
:102110000A480088C0F30D0009490C54074800889C
:10212000401C0649088008460088C72801DD0020B9
:10213000088010BD003801400008014088000020E0
:10214000FC0000200948804709480047FEE7FEE7F9
:10215000FEE7FEE7FEE7FEE7FEE7FEE7FEE7FEE757
:1021600004480549054A064B70470000C7060008A9
:1021700031010008A0030020A0090020A0050020D4
:10218000A005002031490143314A1160704770B504
:10219000002100230F22C47804B32D4C246804F4DA
:1021A000E064C4F5E064210AC1F10403CA40447844
:1021B00004FA03F18478144021430901254C067880
:1021C000A155047804F01F050124AC4005786D1179
:1021D000AD0005F1E025C5F8004109E0047804F000
:1021E0001F050124AC401C4D0678761145F82640A9
:1021F00070BD1A4A0A400243154B1B1F1A607047F4
:1022000039B1134A121D12680243114B1B1D1A608B
:1022100006E00F4A121D126882430D4B1B1D1A6007
:102220007047042808D14FF0E021096941F004010A
:102230004FF0E022116107E04FF0E021096921F041
:1022400004014FF0E0221161704700000000FA0520
:102250000CED00E000E400E080E100E080FFFF1F03
:1022600010B50446CC48844208D10121042000F076
:102270002DFB0021042000F029FB46E0C7488442E2
:1022800008D10121082000F021FB0021082000F0E6
:102290001DFB3AE0C248844208D10121102000F021
:1022A00015FB0021102000F011FB2EE0BD488442F8
:1022B00008D10121202000F009FB0021202000F09E
:1022C00005FB22E0B848844208D10121402000F0FB
:1022D000FDFA0021402000F0F9FA16E0B3488442EC
:1022E00008D10121802000F0F1FA0021802000F0C7
:1022F000EDFA0AE0AE48844207D10121801500F0D2
:10230000E5FA0021A01500F0E1FA10BD10B5012199
:10231000084600F0DBFA0021012000F0D7FA10BDDA
:102320002DE9F0410246002500260020002300246C
:10233000002791F803C00CF00F0591F803C00CF0D2
:10234000100CBCF1000F03D091F802C04CEA050557
:1023500091F800C0BCF1000F31D0146800202BE0D0
:102360004FF0010C0CFA00F3B1F800C00CEA0306C0
:102370009E4220D183004FF00F0C0CFA03F7BC43B0
:1023800005FA03FC4CEA040491F803C0BCF1280FE1
:1023900006D14FF0010C0CFA00FCC2F814C00AE0A0
:1023A00091F803C0BCF1480F05D14FF0010C0CFAB5
:1023B00000FCC2F810C0401C0828D1D31460B1F84A
:1023C00000C0BCF1FF0F34DD546800202EE000F1A6
:1023D000080C4FF0010808FA0CF3B1F800C00CEA41
:1023E00003069E4221D183004FF00F0C0CFA03F735
:1023F000BC4305FA03FC4CEA040491F803C0BCF1A9
:10240000280F05D100F1080C08FA0CF8C2F8148066
:1024100091F803C0BCF1480F07D100F1080C4FF050
:10242000010808FA0CF8C2F81080401C0828CED326
:102430005460BDE8F0814FF6FF7101800221817088
:102440000421C17070470246002093680B400BB115
:10245000012000E0002070470146886880B2704784
:1024600002460020D3680B400BB1012000E00020A1
:1024700070470146C86880B270470161704741618A
:1024800070470AB1016100E041617047C160704767
:102490004FF480320A43826181618261826982697C
:1024A000704702460020434B18684FF6807318406F
:1024B00040EA021008433F4B186070473E49C8612C
:1024C0007047F0B50A46002300240021002500F0E3
:1024D0000046B6F1004F02D1364EF16901E0354EAB
:1024E0007168C0F3034583B200F44016B6F5401F8F
:1024F00008D121F070612F4E766826F070662D4F5E
:102500007E6012E000F48016B6F5801F06D1032627
:1025100006FA05F4A14341F0706106E0460D36016C
:1025200003FA06F6B14341F0706122B1460D36015F
:1025300003FA06F6314300F00046B6F1004F02D12F
:102540001C4EF16101E01B4E7160F0BD30B5002200
:102550008B071C0F0F2303FA04F2164B08338C1061
:1025600053F824309343134C08348D1044F825302D
:1025700023468C1053F824308C07240F00FA04F4FF
:1025800023430C4C08348D1044F8253030BD0A49E3
:10259000DC3108607047000000080140000C014079
:1025A000001001400014014000180140001C0140CF
:1025B000002001400000014000002042DF48006888
:1025C00040F00100DD49086008464068DC490840E9
:1025D000DA49486008460068DA490840D749086087
:1025E0000846006820F4802008600846406820F40F
:1025F000FE0048604FF41F0088607047CF490968AB
:1026000021F48031CD4A11601146096821F48021FE
:102610001160B0F5803F03D0B0F5802F0ED106E0F9
:10262000C649096841F48031C44A116007E0C349D2
:10263000096841F4A021C14A116000E000BF00BF59
:10264000704710B501460022002300204A11012ADC
:1026500002D1BA4C236806E0022A02D1B74C236AA1
:1026600001E0B64C636A01F01F02012494401C4053
:102670000CB1012000E0002010BD38B50020009012
:102680000024002500BF3120FFF7DBFF054600983E
:10269000401C00900098B0F5A06F01D0002DF2D042
:1026A0003120FFF7CEFF08B1012400E000242046CE
:1026B00038BD01460020A14A106820F0F80040EA29
:1026C000C10010607047A0490860704702460020B2
:1026D0009A4B586820F47C1042EA01031843974B48
:1026E0005860704798490866704701460020934A31
:1026F000506820F003000843506070478F484068DE
:1027000000F00C007047014600208C4A506820F011
:10271000F00008435060704701460020874A506827
:1027200020F4E06008435060704701460020834A6F
:10273000506820F4605040EAC1005060704729B1F1
:102740007E4A527A02437D4B5A7204E07B4A527AA7
:1027500082437A4B5A7270477B49D8310860704780
:1027600001460020754A506820F4404008435060FC
:1027700070470021714A20321170704A82F820108F
:10278000012802D004280AD104E001216B4A20323A
:10279000117005E00521694A2032117000E000BF88
:1027A00000BF70476949086070476449096A01437E
:1027B000624A11627047654944390860704730B514
:1027C00000210022002400235C4D6D6805F00C01FF
:1027D00021B1042905D0082923D105E05C4D05600D
:1027E00022E05B4D05601FE0544D6D6805F47012EA
:1027F000524D6D6805F48034022505EB92421CB9F8
:10280000544D554305600BE04C4D6D6805F40035A3
:102810001DB1504D5543056002E04D4D55430560D7
:1028200002E04B4D056000BF00BF444D6D6805F0F0
:10283000F0010909484D6B5C0568DD4045603F4D7E
:102840006D6805F4E061090A434D6B5C4568DD4045
:1028500085603A4D6D6805F46051C90A3E4D6B5C68
:102860004568DD40C560354D6D6805F44041890B14
:102870003A4D6B5CC568B5FBF3F5056130BD29B118
:102880002E4A526902432D4B5A6104E02B4A526989
:1028900082432A4B5A61704729B1284A9269024300
:1028A000264B9A6104E0254A92698243234B9A6140
:1028B000704729B1214AD2690243204BDA6104E012
:1028C0001E4AD26982431D4BDA61704729B11B4A07
:1028D000D2680243194BDA6004E0184AD268824396
:1028E000164BDA60704729B1144A12690243134B40
:1028F0001A6104E0114A12698243104B1A61704751
:1029000012494039086070470F49C86470470B4945
:10291000C87170470948406A40F0807007494862B2
:10292000704701460020054A92680A400AB101201A
:1029300000E0002070470149887270470010024093
:102940000000FFF8FFFFF6FE000042428004424212
:1029500000127A0000093D008A0000209A00002041
:1029600010B50446FB48844209D101218803FFF7D2
:10297000ADFF00214FF48040FFF7A8FF32E0F6489A
:10298000844209D101214804FFF7ADFF00214FF433
:102990000030FFF7A8FF25E0F048844209D101216B
:1029A0008804FFF7A0FF00214FF48020FFF79BFF72
:1029B00018E0EB48844209D10121C804FFF793FFD6
:1029C00000214FF40020FFF78EFF0BE0E548844222
:1029D00008D101210805FFF786FF00214FF4801080
:1029E000FFF781FF10BD2DE9F04786B005460E4682
:1029F0000024A24600BFA1460027B08900B100BF55
:102A00002F462C8A4CF6FF700440F08804432C8239
:102A1000AC894EF6F3100440B088318908437189BF
:102A200008430443AC81AC8A4FF6FF400440B089B0
:102A30000443AC8201A8FFF7C2FEC648874202D118
:102A4000DDF810A001E0DDF80CA0A88900F400403A
:102A500040B10AEBCA0000EB0A1031684900B0FB34
:102A6000F1F807E00AEBCA0000EB0A1031688900B0
:102A7000B0FBF1F86420B8FBF0F0040120096421F8
:102A800001FB1089A88900F4004040B1322000EB1E
:102A9000C900B0FBF1F000F00700044308E0322069
:102AA00000EB09106421B0FBF1F000F00F000443CB
:102AB0002C8106B0BDE8F0874FF41651016000216B
:102AC0008180C18001810C21418100218181704779
:102AD00010B502460020108A4FF2FF0318400B8801
:102AE0004C8823438C882343CC882343184310828B
:102AF00010BD0021018041808180C180704721B1DB
:102B0000828942F40052828104E082894DF6FF738B
:102B10001A4082817047F0B5034600240026002544
:102B2000002040F66A17B94200D100BF1846C1F331
:102B3000421401F01F06012707FA06F5012C01D106
:102B40000C3004E0022C01D1103000E014301AB136
:102B500007682F43076002E00768AF430760F0BDD6
:102B60001AB1838A0B43838202E0838A8B43838278
:102B70007047028A4FF6F0731A400282028A0A43B3
:102B80000282704782894FF2FF731A4082818289E4
:102B90000A438281704721B1828942F00202828118
:102BA00004E082894FF6FD731A4082817047028AE1
:102BB0004FF6DF731A400282028A0A43028270478C
:102BC00021B1028A42F48042028204E0028A4BF67A
:102BD000FF731A4002827047C1F308028280704777
:102BE00001468888C0F308007047818941F00101DF
:102BF00081817047028BD2B20283028B42EA0122AA
:102C000002837047028B02F47F420283028B0A43E5
:102C10000283704721B1828A42F02002828204E05E
:102C2000828A4FF6DF731A408282704721B1828A0E
:102C300042F01002828204E0828A4FF6EF731A405B
:102C40008282704721B1828A42F00802828204E0C7
:102C5000828A4FF6F7731A408282704721B18289C7
:102C600042F40042828103E08289C2F30E02828133
:102C7000704721B1828A42F40062828204E0828A33
:102C80004FF2FF731A4082827047828A4FF6FB73BD
:102C90001A408282828A0A438282704721B1828AE4
:102CA00042F00202828204E0828A4FF6FD731A40EB
:102CB0008282704702460020B1F5007F00D100BF3C
:102CC00013880B400BB1012000E00020704701F495
:102CD0000072B2F5007F00D100BFCA430280704786
:102CE00070B50246002400230025002040F66A1635
:102CF000B14200D100BFC1F3421501F01F0301260C
:102D000006FA03F3012D02D19689334006E0022D25
:102D100002D1168A334001E0968A33400C12012614
:102D200006FA04F41688344013B10CB1012000E017
:102D3000002070BD10B50022002340F66A14A142A5
:102D400000D100BF0A1201249440A3B2DC430480E6
:102D500010BD000000380140004400400048004021
:102D6000004C00400050004010B50446FE4884422C
:102D700008D10121C014FFF7A9FD0021E014FFF7DD
:102D8000A5FDC4E0B4F1804F08D101210846FFF74A
:102D9000AAFD00210120FFF7A6FDB8E0F348844218
:102DA00008D101210220FFF79EFD00210220FFF73C
:102DB0009AFDACE0EE48844208D101210420FFF7DF
:102DC00092FD00210420FFF78EFDA0E0E948844237
:102DD00008D101210820FFF786FD00210820FFF718
:102DE00082FD94E0E448844208D101211020FFF7DD
:102DF0007AFD00211020FFF776FD88E0DF4884424D
:102E000008D101212020FFF76EFD00212020FFF7CF
:102E10006AFD7CE0DA48844208D101214014FFF7C2
:102E200055FD00216014FFF751FD70E0D548844244
:102E300009D10121C804FFF749FD00214FF400200A
:102E4000FFF744FD63E0D048844209D10121080521
:102E5000FFF73CFD00214FF48010FFF737FD56E0EF
:102E6000CA48844209D101214805FFF72FFD0021FE
:102E70004FF40010FFF72AFD49E0C548844208D10D
:102E800001214020FFF72FFD00214020FFF72BFDFF
:102E90003DE0C048844208D101218020FFF723FD96
:102EA00000218020FFF71FFD31E0BB48844208D19C
:102EB00001218015FFF717FD0021A015FFF713FD75
:102EC00025E0B648844209D101210804FFF7FEFC41
:102ED00000214FF48030FFF7F9FC18E0B04884423D
:102EE00009D101214804FFF7F1FC00214FF4003023
:102EF000FFF7ECFC0BE0AB48844208D101218804C9
:102F0000FFF7E4FC00214FF48020FFF7DFFC10BD49
:102F100000220288944B98420ED0994B98420BD0D5
:102F2000B0F1804F08D0914B984205D0904B984219
:102F300002D0904B984204D14FF68F731A404B88C1
:102F40001A438D4B984207D08C4B984204D04FF6D1
:102F5000FF431A40CB881A4302808B8883850B88F5
:102F60000385814B98420BD0854B984208D08B4B00
:102F7000984205D08A4B984202D08A4B984201D1A0
:102F80000B7A038601238382704770B500240022E8
:102F90000023058C4FF6FE7635400584028C83882D
:102FA000048B4FF68F752C40B51E2C400D882C439A
:102FB000751E2A400D892A434D882A436A4DA8422E
:102FC0000BD06F4DA84208D0744DA84205D0744D67
:102FD000A84202D0734DA84213D14FF6F7752A408C
:102FE0004D892A434FF6FB752A408D882A434FF6B8
:102FF000FF652B404FF6FF552B408D892B43CD8924
:103000002B4383800483CD888586028470BD70B590
:10301000002400220023058C4FF6EF76354005840E
:10302000028C8388048B48F6FF752C404FF6FF45D1
:103030002C400D884FF6FF7606EA05252C434FF607
:10304000DF752A400D8906EA05152A434D8806EAF0
:1030500005152A43444DA84202D0494DA8421DD12E
:103060004FF67F752A404D894FF6FF7606EA051523
:103070002A434FF6BF752A408D8806EA05152A4374
:103080004FF6FF352B404FF2FF752B408D8906EA36
:1030900085052B43CD8906EA85052B438380048370
:1030A000CD880587028470BD70B5002400220023FE
:1030B000058C4FF6FF6635400584028C8388848B2F
:1030C0004FF68F752C404FF6FC752C400D882C4325
:1030D0004FF6FF552A400D894FF6FF7606EA052583
:1030E0002A434D8806EA05252A431F4DA84202D0EF
:1030F000234DA8421DD14FF2FF752A404D894FF64E
:10310000FF7606EA05252A434FF6FF352A408D88CB
:1031100006EA05252A434EF6FF752B404DF6FF754E
:103120002B408D8906EA05152B43CD8906EA051546
:103130002B4383808483CD888587028470BD70B5DE
:10314000002200230024058C4EF6FF7635400584CE
:10315000038C8488828B48F6FF752A404FF6FF4522
:103160002A400D8820E00000002C014000040040AF
:1031700000080040000C0040001000400014004017
:1031800000340140004C0140005001400054014017
:1031900000180040001C004000200040004001409A
:1031A00000440140004801404FF6FF7606EA05253D
:1031B0002A434DF6FF752B400D8906EA05352B4352
:1031C0004D8806EA05352B43FA4DA84202D0FA4D48
:1031D000A84208D14BF6FF752C408D894FF6FF763B
:1031E00006EA85152C4384808283CD88A0F8405060
:1031F000038470BD828B4FF2FF331A408283828B2F
:103200004FF6FF7303EA01231A4382837047F0B538
:103210000C461546002200210026078C4EF6FF7C46
:1032200007EA0C070784828B018C4FF6FF7707EAC9
:10323000043640F6FF473A404FF6FF7707EA052786
:103240003A434FF6FF7707EA03373A43D94FB8427C
:103250000ED0D94FB8420BD0B0F1804F08D0D74F25
:10326000B84205D0D64FB84202D0D64FB84206D1A8
:103270004DF6FF77394046F48057394305E047F66D
:10328000FF57394044F48057394382830184F0BDAD
:10329000828B4FF6F3731A408283828B0A438283B8
:1032A0007047F0B50C461546002200210026078C19
:1032B0004FF6FF6C07EA0C070784828B018C4FF6F0
:1032C000FF7707EA04264FF60C773A404FF6FF7770
:1032D00007EA03172F433A43B64FB8420ED0B64F12
:1032E000B8420BD0B0F1804F08D0B44FB84205D0EF
:1032F000B34FB84202D0B34FB84206D14FF6FF5792
:10330000394046F48077394305E04FF2FF573940A2
:1033100044F48077394382830184F0BD028B4FF2FD
:10332000FF331A400283028B4FF6FF7303EA012337
:103330001A4302837047F0B50C461546002200215F
:103340000026078C4FF6EF7C07EA0C070784028BF8
:10335000018C4FF6FF7707EA041640F6FF473A4024
:103360004FF6FF7707EA03373A434FF6FF7707EA4E
:1033700005273A438F4FB8420ED08F4FB8420BD03B
:10338000B0F1804F08D08D4FB84205D08C4FB84275
:1033900002D08C4FB84206D14FF6DF77394046F065
:1033A0001007394305E04FF65F77394044F01007C6
:1033B000394302830184F0BD028B4FF6F3731A4048
:1033C0000283028B0A4302837047F0B50C46154610
:1033D00000220021068C4FF6FE773E400684028BC9
:1033E000018C4FF60C7632407E1C06EA03162E4303
:1033F0003243704EB0420ED06F4EB0420BD0B0F19F
:10340000804F08D06D4EB04205D06D4EB04202D014
:103410006C4EB04206D14FF6FD76314044F00106C5
:10342000314305E04FF6F576314044F00106314373
:1034300002830184F0BD70B505460C465D488542A7
:103440000ED05D4885420BD0B5F1804F08D05B4867
:10345000854205D05A48854202D05A48854200D15B
:1034600000E000BF208850B92389A28861882846DF
:10347000FFF7ABFFE1882846FFF79EFF25E0208895
:1034800004280AD12389A28861882846FFF753FFC0
:10349000E1882846FFF742FF17E0208808280AD174
:1034A0002389A28861882846FFF7FBFEE188284629
:1034B000FFF7EEFE09E02389A28861882846FFF71E
:1034C000A6FEE1882846FFF795FE70BD2DE9F04184
:1034D00005460C4600260127608808B9022600E050
:1034E0000026A088012801D1022700E001272088BA
:1034F000A0B92389A28861882846FFF766FFE18882
:103500002846FFF759FF23893A4631462846FFF7F8
:1035100012FFE1882846FFF701FF13E02389A28804
:1035200061882846FFF707FFE1882846FFF7F6FE87
:1035300023893A4631462846FFF747FFE188284667
:10354000FFF73AFFBDE8F0810A884B881A438B8861
:103550001A43CB881A430B891A434B891A438B8928
:103560001A43A0F8442070474FF6FF718180002174
:103570000180C1804180017270470021018041803B
:103580008180C180018141818181C1817047002199
:1035900001804180012181800021C180018170472B
:1035A0000021018041808180C18001814181818130
:1035B00070470000002C014000340140000400402E
:1035C00000080040000C004021B1028842F00102D6
:1035D000028004E002884FF6FE731A4002807047B2
:1035E00031B1B0F8442042F40042A0F8442005E094
:1035F000B0F84420C2F30E02A0F8442070471AB17C
:1036000083890B43838102E083898B4383817047E5
:103610008182704741EA0203A0F8483070471AB12E
:1036200083890B43838102E083898B4383817047C5
:1036300001894FF6F8721140018170470A46002156
:1036400001894FF68F73194011430181704730B5DE
:1036500004460D4629462046FFF7F0FF208940F03A
:103660000700208130BD2DE9F04104460D46164685
:103670001F46602D06D13B46012231462046FFF70A
:103680005AFE05E03B46012231462046FFF79DFEEB
:1036900029462046FFF7D2FF208940F0070020810D
:1036A000BDE8F08130B50C4600210189C9B24FF662
:1036B000FF7505EA0325154325432943018130BDE4
:1036C0002DE9F04105460E4617469846002443462C
:1036D0003A4631462846FFF7E5FF2C894FF6F87049
:1036E000044044F007044FF68F70044044F0700427
:1036F0002C81BDE8F081F0B504460D4616461F4604
:103700003B46324629462046FFF7CCFF208940F44D
:1037100080402081F0BD0185828270470A460021E9
:1037200001884FF68F731940114301807047F0B53F
:103730000C4615461E460021002200230189028BFB
:10374000038C4FF6F877394021434FF6FC473A4057
:1037500040F201173A434FF6DD773B404FF6FF77D3
:1037600007EA06172F433B43018102830384F0BD20
:103770000A460021018B4FF68F73194011430183D4
:1037800070470A460021018B48F6FF7319404FF637
:10379000FF7303EA02231943018370470A4600219D
:1037A000818B4FF68F7319401143818370470A460E
:1037B0000021818B48F6FF7319404FF6FF7303EA2F
:1037C000022319438183704721B1028842F08002AD
:1037D000028004E002884FF67F731A40028070472F
:1037E00021B1828842F00402828004E082884FF690
:1037F000FB731A408280704721B1828842F0080230
:10380000828004E082884FF6F7731A408280704706
:1038100021B1828842F00102828004E082884FF662
:10382000FE731A40828070470A460021018B4FF6D2
:10383000F77319401143018370470A460021018B39
:103840004FF2FF7319404FF6FF7303EA0223194347
:10385000018370470A460021818B4FF6F7731940A8
:103860001143818370470A460021818B4FF2FF7319
:1038700019404FF6FF7303EA02231943818370470F
:103880000A460021018B4FF6FB7319401143018357
:1038900070470A460021018B4FF6FF3319404FF65F
:1038A000FF7303EA02231943018370470A4600218C
:1038B000818B4FF6FB7319401143818370470A4691
:1038C0000021818B4FF6FF3319404FF6FF7303EA57
:1038D00002231943818370470A460021018B4FF66A
:1038E0007F7319401143018370470A460021018B01
:1038F000C1F30E014FF6FF7303EA0223194301835C
:1039000070470A460021818B4FF67F73194011439F
:10391000818370470A460021818BC1F30E014FF667
:10392000FF7303EA02231943818370470A4600218B
:10393000018C4FF6FD7319401143018470470A460C
:103940000021018C4FF6F773194011430184704731
:103950000A460021018C4FF6DF7319404FF6FF73C2
:1039600003EA02131943018470470A460021018CBF
:103970004FF67F7319404FF6FF7303EA02131943A2
:10398000018470470A460021018C4FF6FF5319400D
:103990004FF6FF7303EA02231943018470470A4676
:1039A0000021018C4FF2FF7319404FF6FF7303EAB9
:1039B00002231943018470470A460021018C4DF609
:1039C000FF7319404FF6FF7303EA02331943018472
:1039D000704730B5002301248C40A3B2048C9C4373
:1039E0000484048C02FA01F5ADB22C43048430BD8A
:1039F00030B5002304248C40A3B2048C9C4304847F
:103A0000048C02FA01F5ADB22C43048430BD70B5CC
:103A10000346002000241846183001258D40ACB222
:103A20001D8CA5431D8409B1082909D100EB610053
:103A3000056825F0700505600568154305600EE012
:103A40000D1FC5F34E052844056825F4E0450560C3
:103A500005684FF6FF7606EA02263543056070BD1D
:103A600021B1028842F00202028004E002884FF68F
:103A7000FD731A400280704721B1028842F00402AF
:103A8000028004E002884FF6FB731A400280704700
:103A900021B1828842F08002828004E082884FF661
:103AA0007F731A408280704702884FF6F7731A407E
:103AB000028002880A430280704782884FF68F7323
:103AC0001A40828082880A438280704702894FF6BA
:103AD000F8731A40028102890A4302817047028901
:103AE0004FF67F731A40028102890A4302817047B0
:103AF0008184704781857047818670470187704750
:103B000081877047A0F84010704702884FF6FF4346
:103B10001A40028002880A43028070470146888E5C
:103B200070470146088F70470146888F70470146ED
:103B3000B1F8400070470146888C70470146088DF7
:103B4000704702460020138A0B400BB1012000E0B1
:103B500000207047CA430282704730B502460020F9
:103B600000230024158A05EA0103958905EA01046A
:103B700013B10CB1012000E0002030BDCA43028225
:103B80007047000010B50446BE48844208D10121A8
:103B90008014FEF79BFE0021A014FEF797FE16E0AE
:103BA000B948844208D101210014FEF79CFE00218F
:103BB0002014FEF798FE0AE0B448844207D10121A0
:103BC000C013FEF790FE0021E013FEF78CFE10BD3F
:103BD00010B50022028802F441520B884C8823431E
:103BE0008C882343CC8823430C8923434C8923436B
:103BF0008C892343CC8923431A430280838B4FF261
:103C0000FF74234083830B8A038210BD2DE9F04F9C
:103C100085B005460C464FF0000902274FF000081A
:103C20004FF0010B0026B246A88B4FF2400108402E
:103C3000A88302202884B5F81C90A068022801D12E
:103C400000BF38E0A08810B94FF0010B01E04FF041
:103C5000020B8D48854200D100E000BF6846FEF7A8
:103C6000AEFDDDF800A0E088B0F5007F0AD14FEA94
:103C70001A2000EB80004000A168B0FBF1F0401D6D
:103C800086B20BE04FEA4B10BAFBF0F000EB80007D
:103C90004000A168B0FBF1F0401D86B20A20B6FBDF
:103CA000F0F606F00108A6EB0800C0F34F074FF648
:103CB000FF7000EA0828022F01DBFF2F02DD022738
:103CC0004FF00008E08840EA080038432884A088C4
:103CD000A1890843618808432188084340F40060B3
:103CE00040EA0909A5F81C9005B0BDE8F08F002155
:103CF000018041808180C180018141818181C181B8
:103D00000721018270470021018041808180C180AC
:103D10000221816000218181704721B1028842F037
:103D20004002028004E002884FF6BF731A4002800E
:103D3000704721B1828B42F48062828304E0828BDF
:103D40004FF6FF331A408283704730B500240023BA
:103D50000C110125A540ABB21AB185881D438580A1
:103D600002E085889D43858030BD1AB183880B436E
:103D7000838002E083888B43838070478181704712
:103D80000146888970474FF6FF62914204D002884D
:103D900042F48072028004E002884FF6FF631A400A
:103DA0000280704721B1828842F00402828004E0E0
:103DB00082884FF6FB731A408280704702884FF268
:103DC000FF731A40028002880A430280704701880C
:103DD00041F480510180704721B1028842F40052C1
:103DE000028004E002884DF6FF731A40028070479B
:103DF00002460020012901D0108B00E0908A704714
:103E00000146088A7047B1F5804F04D1028842F418
:103E10008042028004E002884BF6FF731A40028061
:103E200070470246002013890B400BB1012000E0CF
:103E300000207047CA4302817047F0B50246002057
:103E400000240023002501F00F070126BE40B4B274
:103E50000B1101269E40B3B2968806EA0305168927
:103E6000264016B10DB1012000E00020F0BD10B5D4
:103E7000002201F00F040123A3409AB2D34303812F
:103E800010BD00000030014000380040003C004000
:103E900010B50446FA48844208D101214015FEF7C6
:103EA00015FD00216015FEF711FD17E0F54884426D
:103EB00008D101210015FEF709FD00212015FEF7AC
:103EC00005FD0BE0F048844208D10121C803FEF74C
:103ED000FDFC00214FF40040FEF7F8FC10BD30B5AA
:103EE0000246002000235068E84C20400D790C6801
:103EF00044EA0524204350609068E54C2040D1E915
:103F000002542C434D7944EA450420439060D06A22
:103F100020F470000C7C641EE4B2234340EA03509A
:103F2000D06230BD00210160017141718160C160CA
:103F300001210174704721B1826842F00102826060
:103F400003E0826822F001028260704721B182683A
:103F500042F48072826003E0826822F480728260A0
:103F6000704710B50023CBB21AB144681C434460BB
:103F700002E044689C43446010BD816841F0080140
:103F800081607047014600208A6802F008020AB189
:103F9000012000E000207047816841F00401816049
:103FA0007047014600208A6802F004020AB101202D
:103FB00000E00020704721B1826842F4A0028260D4
:103FC00003E0826822F4A00282607047014600206C
:103FD0008A6802F480020AB1012000E000207047E4
:103FE00010B50A4600210023416821F46041531EA8
:103FF00041EA4331416010BD21B1426842F40062A0
:10400000426003E0426822F4006242607047F0B50B
:1040100004460D4600200021092D11DDE068A5F1C0
:104020000A0606EB4607072606FA07F18843A5F1BC
:104030000A0606EB460603FA06F10843E0600CE0C8
:10404000206905EB4507072606FA07F1884305EBCB
:10405000450603FA06F108432061072A0FDA606B70
:10406000561E06EB86071F2606FA07F18843561EE2
:1040700006EB860605FA06F10843606322E00D2A86
:104080000FDA206BD61F06EB86071F2606FA07F10C
:104090008843D61F06EB860605FA06F1084320631F
:1040A00010E0E06AA2F10D0606EB86071F2606FA6D
:1040B00007F18843A2F10D0606EB860605FA06F124
:1040C0000843E062F0BD21B1826842F48012826050
:1040D00003E0826822F48012826070470146C86C57
:1040E00080B2704766484C300068704721B1426822
:1040F00042F48062426003E0426822F480624260DF
:10410000704721B1426842F48052426003E0426845
:1041100022F48052426070470A460021816821F4EF
:10412000E04111438160704721B1826842F400424E
:10413000826003E0826822F400428260704721B10D
:10414000826842F40212826003E0826822F4021262
:1041500082607047014600208A6802F400120AB1AA
:10416000012000E000207047F0B50446154600200D
:1041700000220026092911DDE068A1F10A0707EBFA
:10418000470C072707FA0CF29043A1F10A0707EB47
:10419000470703FA07F21043E0600CE0206901EBE7
:1041A000410C072707FA0CF2904301EB410703FA91
:1041B00007F210432061A06BC0F30156EF1C06F11B
:1041C000010CA7EB0C0707EB870C1F2707FA0CF273
:1041D0009043EF1C06F1010CA7EB0C0707EB8707D8
:1041E00001FA07F21043A063F0BD10B50A460021A2
:1041F0000023816B21F44011531E41EA0351816376
:1042000010BD08B5002300930090009B0B44009361
:10421000009B1A6008BD08B502460020009000927D
:1042200001F12800009B184400900098006880B2BB
:1042300008BD0A4600214168164B194011434160F0
:1042400070474162826270470A460021416821F04E
:104250001F0111434160704740B1094908310968A5
:1042600041F40001064A0832116007E004490831B0
:10427000096821F40001024A083211607047000009
:104280000024014000280140003C0140FFFEF0FFF7
:10429000FDF7F1FFFFFD3FFF0246002013680B40D2
:1042A0000BB1012000E000207047CA430260704754
:1042B00070B502460020002300240B125568CEB2D0
:1042C00005EA060415681D4015B10CB1012000E097
:1042D000002070BD00220A12D34303607047000023
:1042E0002DE9FF5F07460E4693464FF0000835461E
:1042F000B1463446B24607B126B94FF0FF3004B09C
:10430000BDE8F09F4FF00008B7E0781C10F80800F7
:10431000152870D2DFE800F0797A7BABAB7C7D7E2C
:1043200082ABABABAB86909F8C0B253F5A002878B5
:1043300080490870084601787FA002F0B7FB7D48ED
:104340000078012806D10020814908608148FDF7E6
:104350000BFD05E001207E4908607F48FDF704FD64
:1043600086E0687873494870084641787BA002F07F
:104370009DFB70484078012806D100207C490860E8
:104380007C48FDF7F1FC05E00120794908607A4896
:10439000FDF7EAFC6CE0A8786649887008468178E9
:1043A00076A002F083FB6348807801280DD1FCF7EA
:1043B000DAFA7948FDF7D8FC4FF47A70FDF7F5FD8D
:1043C000FCF7D7FA00205B49887051E0E87859493A
:1043D000C8700846C17871A002F068FB5548C078E3
:1043E000012809D14FF4FA715A20FDF73BFC7248BD
:1043F000FDF7BAFC08E03AE04FF4FA715A20FDF7F5
:104400006BFC6E48FDF7B0FC32E031E030E02FE0AD
:104410002EE02DE001206A49087029E0002068495B
:10442000087025E099F8001066A002F03FFB1FE03D
:1044300067A002F03BFB1BE0A17962792379A068B9
:10444000CDE90032CDE90210E378A278218865A099
:1044500002F02CFB0CE06EA002F028FB71A002F031
:1044600025FB9AF8001073A002F020FB00E000BFCB
:1044700000BF08F1010000F0FF08387840453FF721
:1044800044AF00203BE710B514212A4802F0DCFCC1
:1044900010BD6D480068401C6B49086070476A4851
:1044A00000687047012080F3138800BF00BF674891
:1044B000006800F4E06066490843001D6349086035
:1044C000BFF3408F00BF00BFFEE700B5FFF7E1FF7D
:1044D00000BD08B5002000900121684600F0BCF83E
:1044E00008BD70B505460E4600240DB9601E70BDAE
:1044F00000241BE0295D5748FEF76EFB00BF4021FA
:104500005448FEF7D7FB0028F9D0022C0DD3285DC4
:10451000FF280AD155214F48FEF75EFB00BF40211E
:104520004C48FEF7C7FB0028F9D0641CB442E1D325
:104530003046DCE7D80000204576743A20455645E1
:104540004E545F57696E64202564200A0000000005
:1045500094012342BC000020C20000204576743A3A
:10456000204556454E545F4C4544202564200A00A2
:1045700094812142B6000020B00000204576743AB4
:10458000204556454E545F4669727374446F6F728E
:10459000202564200A000000480000204576743A77
:1045A000204556454E545F5365636F6E64446F6F8C
:1045B00072202564200A0000A4000020AA00002028
:1045C00000000020525353492025640A00000000D7
:1045D0005452414E53504152454E545F4441544110
:1045E000200A0000574946495F4E5450203A205B4C
:1045F00025642D25642D256420253032643A25302C
:1046000032643A253032645D5B25645D200A000027
:104610004D4F44554C4520494E464F202E2E2E0AD4
:1046200000000000574946204D4F44554C45202E70
:104630002E2E0A006D6F64756C6554797065203A92
:10464000205B25645D200A00A00000200CED00E046
:104650000000FA050048004070B504460D460026EB
:1046600024B9F3A002F022FA701E70BD2A4621463A
:10467000F74802F0BDF90646AE4205D0F5A002F0BB
:1046800015FA4FF0FF30F0E73046EEE710B504467C
:104690002CB9F7A002F00AFA4FF0FF3010BD00204D
:1046A00020606060FF20207060700020F6E770B529
:1046B00004460D462CB9F9A002F0F8F94FF0FF308E
:1046C00070BD2221FB4802F0BFFB2A462146F94873
:1046D000801C02F042FBF7484138A0F85D500121F0
:1046E00080F84210FFF7DBFEF2494139C1F85F0064
:1046F0000020E5E7F8B505460C4616460DB104B1B5
:104700002EB9EDA002F0D2F94FF0FF30F8BD2878B5
:1047100000F0010098B111212278601C81542078AA
:10472000401C207001206B1C0246002100900846AE
:1047300002F023F808B1012000E000203070287852
:10474000C0F3400098B112212278601C8154207877
:10475000401C207001206B1C024601460090002086
:1047600002F00BF808B1012000E0002070702878FA
:10477000C0F3800098B113212278601C8154207806
:10478000401C207001206B1C02460221009000207A
:1047900001F0F3FF08B1012000E00020B07028789C
:1047A000C0F3C00098B114212278601C8154207895
:1047B000401C207001206B1C024603210090002049
:1047C00001F0DBFF08B1012000E00020F0700020C4
:1047D0009CE72DE9F04104460D460027002604B170
:1047E00035B9C0A002F062F94FF0FF30BDE8F081AA
:1047F000FFF755FE064628782178884203D0C3A0EB
:1048000002F054F9012768786178884203D0C4A087
:1048100002F04CF90127A878A178884203D0C5A0FE
:1048200002F044F90127E878E178884203D0C7A074
:1048300002F03CF901276868616888420AD0CA48DA
:104840000068301A41F27071884203D3C7A002F0A9
:104850002DF90127A868A16888420AD0C2480068DB
:10486000301A41F27071884203D3C7A002F01EF9DA
:104870000127E868E16888420AD0BB480068301A1E
:1048800041F27071884203D3C5A002F00FF90127ED
:104890002869216988420AD0B3480068301A41F279
:1048A0007071884203D3C3A002F000F90127012FE1
:1048B00003D1FFF7F4FDAC490860384696E738B5F8
:1048C00004460D4604B12DB9BFA002F0EFF84FF039
:1048D000FF3038BD0020287020782B4601220021AF
:1048E0000090084601F0AAFF60782B46012211468D
:1048F0000090002001F0A2FFA0782B4601220221A7
:104900000090002001F09AFFE0782B46012203215D
:104910000090002001F092FF0121284601F028FEBE
:1049200062680021012001F03CFE6870A26800214D
:10493000012001F036FEA870E2680021012001F09C
:1049400030FEE87022690021012001F02AFE287162
:104950000020BEE72DE9F04780460C4617461D466D
:10496000089E94F800900CB105B136B9A2A002F0EF
:104970009DF84FF0FF30BDE8F087B8F1000F54D13B
:1049800016214C48223002F05FFAB9F1010F06D02F
:10499000B9F1020F12D0B9F1050F47D125E0454A10
:1049A0007F32A2F15D01601CFFF7A4FE01204149A6
:1049B0004139087000250020306036E13D497A31E8
:1049C00001F11900FFF77BFF58B93A487A300168C6
:1049D000C5F8011000796871032028700620306046
:1049E00002E04FF0FF30C6E71FE17A1E611C31483C
:1049F000263802F0B2F9781E2E494139C1F8350047
:104A000010212C48413890F8632064308154643878
:104A100090F86300401C2749413981F86300032066
:104A20000870002500203060FFE0FFE0FCE000009F
:104A30004552523A2067697A507574446174612016
:104A400062756620697320656D707479200A0000B4
:104A5000FA0200204552523A204661696C65642092
:104A6000746F2072625772697465200A000000003A
:104A70004552523A2067697A50726F746F636F6C57
:104A800048656164496E6974206865616420697372
:104A900020656D707479200A000000004552523A7A
:104AA000206461746120697320656D707479200AD7
:104AB000000000000502002067697A4461746150BB
:104AC0006F696E74324576656E74204572726F72CE
:104AD000202C20496C6C6567616C20506172616D9F
:104AE0000A00000067697A436865636B5265706FFE
:104AF0007274204572726F72202C20496C6C65674D
:104B0000616C20506172616D0A00000076616C7505
:104B10006557696E64204368616E6765640A0000CA
:104B200076616C75654C4544204368616E676564C9
:104B30000A00000076616C75654669727374446F93
:104B40006F72204368616E6765640A0076616C75F8
:104B5000655365636F6E64446F6F72204368616E66
:104B60006765640A00000000C800002076616C756B
:104B70006554656D70657261747572652043686116
:104B80006E6765640A00000076616C756548756D36
:104B90006964697479204368616E6765640A00001E
:104BA00076616C75654C69676874204368616E67EF
:104BB00065640A0076616C756541697220436861BD
:104BC0006E6765640A00000067697A446174615029
:104BD0006F696E7473325265706F72744461746180
:104BE000204572726F72202C20496C6C6567616C75
:104BF00020506172616D0A0067697A50726F746F3C
:104C0000636F6C49737375656450726F636573731A
:104C1000204572726F72202C20496C6C6567616C44
:104C200020506172616D0A0000BF00BF0020A2E643
:104C30002DE9F04F8FB006468B4617469946002067
:104C40000E9082468046002501ACBBF1000F06D1D4
:104C5000EEA001F02BFF681E0FB0BDE8F08FB9F198
:104C6000010F06D196F8088008F10600384485B295
:104C700001E0781D85B22B4642463946E9A001F095
:104C800015FFFF2004F8010B04F8010B281204F8AB
:104C9000010B04F8015B3079401C04F8010B7079BA
:104CA00004F8010B002004F8010B04F8019B4FF0FD
:104CB000080AB9F1010F0DD104F8018B0AF1010ABC
:104CC00001A901EB0A00424606F1090102F045F88C
:104CD000C244444437B101A901EB0A003A4659469F
:104CE00002F03BF8291D01A801F076FA0146E81C04
:104CF00001AA1154291D01A8FFF7F3FB0E900E988D
:104D0000002806DAD1A00E9901F0D0FE6FF0010064
:104D1000A2E70020A0E72DE9FF4105460E46174611
:104D2000002436B9CFA001F0C1FE601E04B0BDE87A
:104D3000F0816846FFF7AAFC05208DF80400D348EF
:104D400090F83910D0F83900401CD04AC2F8390028
:104D5000C8B28DF805008DF808500B2001F04FFA0D
:104D6000ADF802003A4631460DF1090001F0F5FFB9
:104D70000F21684601F030FA8DF80E000F216846C9
:104D8000FFF7AFFB0446002C06DA2146C0A001F075
:104D90008DFE6FF00100C9E70F216846FFF787FC21
:104DA0002046C3E770B50546FFF779FB0446B749CF
:104DB000D4312846FFF70DFD012814D1BBA001F026
:104DC00075FEB249BB312846FFF779FD28B90522A7
:104DD000AE49BB310420FFF79EFF14222946AB48A1
:104DE000D43001F0BAFFB748B4FBF0F100FB11403A
:104DF000D0B9B5480068A04216D0B4A001F056FE64
:104E0000A249BB312846FFF75AFD28B905229F4920
:104E1000BB310420FFF77FFF142229469B48D43082
:104E200001F09BFFA848046070BD2DE9FE4F80464D
:104E30000E4617464FF0000B002002908146824636
:104E4000002534460090B8F1000F01D006B137B903
:104E5000A4A001F02BFE4FF0FF30BDE8FE8F4046CE
:104E600001F04AFD00F0FF0ABAF1000F02D14FF045
:104E7000FF30F2E74FF000095DE0012201A9404652
:104E800001F065FD8346BBF1000F52D0A1480078C8
:104E9000FF281FD19DF80400FF281BD19E480078F1
:104EA00048B9FF202070607002209C4908800120D2
:104EB0009949087034E099480088042830DD974803
:104EC0000088A8422CD0FF202070607002209349F7
:104ED000088025E08F480078FF2803D19DF8040062
:104EE00055281DD08C480078012819D19DF8040060
:104EF0008A490988605489480088401C874908808D
:104F00000846008804280BDD0094009C608801F0AE
:104F100076F9001D85B281480088A84200D10CE0D6
:104F20009DF804007B4908707D480078401C7C494E
:104F3000087009F10109D1459FDB00BF774800885F
:104F4000042823DD75480088A8421FD173480188D2
:104F5000204601F041F9029070480088401E215C13
:104F6000029881420FD12A462146304601F0F5FED3
:104F70003D800020684908706849088068490870C9
:104F80006449087069E76FF0010066E7012064E793
:104F900010B500243D4890F8420000B910BD61A052
:104FA00001F084FD3948B0F85D104330FFF799FAFD
:104FB00004463648B0F85D00A04202D061A001F07E
:104FC00075FDFFF76CFA3149C1F85F0000BFE5E7F6
:104FD00070B504462D4D433534B9AFF2405001F061
:104FE00065FD4FF0FF3070BD2879401C2179884263
:104FF00004D122212548413001F026FF0020F2E7AC
:105000003EB50446002504B9A8E0ACE05B45525229
:105010005D202064617461204973204E756C6C20A2
:105020000A0000006C656E203D202564202C207352
:105030004469644C656E203D202564202C646174B5
:10504000615F6C656E203D2025640A007561727495
:10505000207772697465206572726F7220256420F2
:105060000A00000067697A5265706F727444617457
:1050700061204572726F72202C20496C6C656761EB
:105080006C20506172616D0A00000000C4010020B4
:105090004552523A207561727420777269746520A6
:1050A0006572726F72202564200A00006368616E69
:1050B0006765642C207265706F727420646174611E
:1050C0000A000000C0270900CC000020496E666F6E
:1050D0003A2036303053207265706F7274206461EC
:1050E00074610A0067697A50726F746F636F6C47FE
:1050F00065744F6E655061636B6574204572726FA5
:1051000072202C20496C6C6567616C205061726163
:105110006D0A0000D4000020D0000020D200002042
:10512000D50000205761726E696E673A2074696D10
:10513000656F75742C20726573656E64206461748C
:1051400061200A004552523A20726573656E6420F0
:1051500064617461206572726F720A00FCA001F0D4
:10516000A5FC681E3EBD20680090606801909DF817
:105170000400401CC0B28DF80400052001F03FF887
:10518000ADF802000921684601F026F88DF8080004
:1051900009216846FFF7A5F90546002D04DA2946DE
:1051A000AFF2141001F082FC2846DBE710B5F3489B
:1051B00090F84200012827D1F04890F841000228D9
:1051C0001DDAFFF76CF9ED49D1F85F10401AC828D5
:1051D0001AD9FFF764F90446E84890F84130D0F84E
:1051E0005F202146E6A001F061FCFFF7D1FEE34815
:1051F00090F84100401CE14981F8410004E022217F
:10520000DE48413001F020FE10BD30B59DB00446AF
:1052100000252CB9E4A001F049FC681E1DB030BD8A
:105220006846FFF733FA02208DF8040060798DF8A4
:105230000500E9A103C9CDE90201EAA103C9CDE94D
:105240000401EBA103C9CDE90801ECA103C9CDE933
:1052500006012022ECA10AA801F0C4FD2022F3A13E
:105260000DF1520001F079FD0020CDF84A00CDF893
:105270004E009DF851008DF851009DF8510040F00E
:1052800002018DF85110002000F0B9FFADF8480080
:105290006F2000F0B4FFADF802007321684600F003
:1052A0009BFF8DF8720073216846FFF71AF90546D7
:1052B000002D04DA2946AFF2282001F0F7FB28463A
:1052C000ACE7FEB504460E46002524B9E0A001F087
:1052D000EDFB681EFEBD6846FFF7D8F912208DF879
:1052E000040060798DF80500062000F088FFADF815
:1052F00002008DF808600A21684600F06DFF8DF805
:1053000009000A216846FFF7ECF80546002D04DA8B
:105310002946AFF2842001F0C9FB2846DAE770B5D0
:10532000044625462CB9D5A001F0C0FB4FF0FF3054
:1053300070BD9248E930A9680160E9684160298A36
:105340000181A97C81728D49B1F8E90000F057FF15
:105350008A49A1F8E900D1F8F10000F05DFF874922
:10536000C1F8F1000E21854890F88F2090308154CB
:10537000903890F88F00401C804981F88F000420FD
:1053800008700020D4E710B5FFF789F8044600BF85
:10539000FFF785F8001BB0F5167FF9D9FFF782F803
:1053A00010BD10B504462CB9B9A001F07FFB4FF039
:1053B000FF3010BD208900F022FF2081C048007816
:1053C000C0F38000217AC1F38001884256D0207A50
:1053D000C0F38000002829D0207A00F0010078B1C5
:1053E0000021664890F879207A3081547A3890F814
:1053F0007900401C614981F87900B2A001F056FBA8
:10540000207AC0F34000002838D001215B4890F892
:1054100079207A3081547A3890F87900401C5749C5
:1054200081F87900AFA001F041FB27E0207A00F07D
:10543000010078B10021514890F879207A308154E8
:105440007A3890F87900401C4C4981F879009DA089
:1054500001F02CFB207AC0F3400078B102214748CC
:1054600090F879207A3081547A3890F87900401C8D
:10547000424981F87900A2A001F018FB9048007819
:10548000C0F3C000217AC1F3C00188422CD0207A39
:10549000C1088B48007861F3C30089490870207AFD
:1054A000C0F3C00080B10321344890F879207A30ED
:1054B00081547A3890F87900401C304981F879009D
:1054C00096A001F0F3FA0FE004212C4890F879201F
:1054D0007A3081547A3890F87900401C274981F855
:1054E000790096A001F0E2FA75480078C0F3001048
:1054F000217AC1F3001188421BD0207A010970483B
:10550000007861F304106E490870207AC0F300102F
:1055100080B10521194890F879207A3081547A3881
:1055200090F87900401C154981F879008BA001F0B2
:10553000BDFA26E10621114890F879207A3081548D
:105540007A3890F87900401C0C4981F8790015E10F
:105550004552523A2067697A50726F746F636F6C6C
:10556000436F6D6D6F6E41636B2064617461206980
:105570007320656D707479200A000000C40100205A
:105580005761726E696E673A67697A50726F746FAD
:10559000636F6C526573656E644461746120256449
:1055A0002025642025640A0067697A50726F746F41
:1055B000636F6C476574446576696365496E666FB1
:1055C000204572726F72202C20496C6C6567616C8B
:1055D00020506172616D0A0030303030303030342C
:1055E0000000000030303030303030320000000039
:1055F0003033303330303030000000003033303161
:10560000303130300000000063306538363062647D
:105610003363303534323932383432386130626194
:1056200065663466316532640000000030306336F0
:1056300035366664613939393439613762623937F0
:10564000663537343936643038633139000000004C
:1056500067697A50726F746F636F6C4572726F72A4
:10566000436D64204572726F72202C20496C6C650A
:1056700067616C20506172616D0A00004552523AB8
:10568000204E545020697320656D707479200A0093
:1056900067697A50726F746F636F6C4D6F64756C6D
:1056A00065537461747573204572726F72202C207B
:1056B000496C6C6567616C20506172616D0A000015
:1056C000D60000204F6E426F617264696E673A20A7
:1056D000536F66744150206F7220576562206D6F62
:1056E00064650A004F6E426F617264696E673A20AA
:1056F0004169724C696E6B206D6F64650A00000031
:105700004F6E426F617264696E673A2053746174C0
:10571000696F6E206D6F64650A0000005769466905
:10572000207374617475733A20696E2062696E64C7
:10573000696E67206D6F64650A00000057694669ED
:10574000207374617475733A206F75742062696E8A
:1057500064696E67206D6F64650A00005769466969
:10576000207374617475733A20636F6E6E65637431
:10577000656420726F757465720A0000F6A001F00E
:1057800095F9FE480078C0F34010217AC1F340112A
:1057900088422CD0207A4109F848007861F34510FE
:1057A000F6490870207AC0F3401080B10721F44810
:1057B00090F879207A3081547A3890F87900401C3A
:1057C000EF4981F87900EFA001F070F90FE00821AE
:1057D000EB4890F879207A3081547A3890F8790043
:1057E000401CE74981F87900EDA001F05FF9E3483A
:1057F0004078C0F3C001607AC0F3C00081422CD071
:10580000607AC108DD48407861F3C300DB49487025
:10581000607AC0F3C00080B10B21D94890F879209C
:105820007A3081547A3890F87900401CD44981F854
:105830007900E3A001F03AF90FE00C21D04890F88C
:1058400079207A3081547A3890F87900401CCC491C
:1058500081F87900E1A001F029F9C8484078C0F347
:105860000011607AC0F3001081422CD0607A0109E7
:10587000C248407861F30410C0494870607AC0F3B0
:10588000001080B10921BE4890F879207A30815407
:105890007A3890F87900401CB94981F87900D7A08E
:1058A00001F004F90FE00A21B54890F879207A3028
:1058B00081547A3890F87900401CB14981F8790018
:1058C000D5A001F0F3F80D21AD4890F879207A3099
:1058D00081547A3890F87900401CA94981F8790000
:1058E000607A00F0070081F8E800084690F8E810B8
:1058F000D0A001F0DBF80220A1490870002058E593
:1059000010B53420CF490860CF48C860084600F081
:10591000D5FF18B9CDA001F0C9F802E0D0A001F080
:10592000C5F84FF49B71964801F08EFA10BD30B562
:1059300087B005460024062D7ED2DFE805F003314E
:105940006193C1F001A8FEF7A1FE0B208DF80800BD
:105950008B4890F83910D0F83900401C884AC2F8BA
:105960003900C8B28DF80900052000F048FCADF8F8
:105970000600092101A800F02FFC8DF80C00092178
:1059800001A8FEF7AEFD0446002C04DA2146AFF66E
:10599000001001F08BF8092101A8FEF788FE80E1D4
:1059A00004A8FEF773FE09208DF81400744890F8DF
:1059B0003910D0F83900401C714AC2F83900C8B219
:1059C0008DF815008DF81850062000F018FCADF881
:1059D00012000A2104A800F0FFFB8DF819000A212B
:1059E00004A8FEF77EFD0446002C04DA2146AFF63B
:1059F000601001F05BF80A2104A8FEF758FE50E1A0
:105A000004A8FEF743FE09208DF814005C4890F8C6
:105A10003910D0F83900401C594AC2F83900C8B2D0
:105A20008DF815008DF81850062000F0E8FBADF851
:105A300012000A2104A800E02FE100F0CDFB8DF850
:105A400019000A2104A8FEF74CFD0446002C04DAD4
:105A50002146AFF6C41001F029F80A2104A8FEF788
:105A600026FE1EE101A8FEF711FE13208DF80800A6
:105A7000434890F83910D0F83900401C404AC2F829
:105A80003900C8B28DF80900052000F0B8FBADF868
:105A90000600092101A800F09FFB8DF80C000921E8
:105AA00001A8FEF71EFD0446002C04DA2146AFF6DD
:105AB000202000F0FBFF092101A8FEF7F8FDF0E02F
:105AC00001A8FEF7E3FD15208DF808002C4890F89A
:105AD0003910D0F83900401C294AC2F83900C8B240
